{
  "contractName": "Game",
  "abi": [
    {
      "constant": true,
      "inputs": [
        {
          "internalType": "uint256",
          "name": "questionIndex",
          "type": "uint256"
        }
      ],
      "name": "getCorrectAddressByQuestion",
      "outputs": [
        {
          "internalType": "address payable[]",
          "name": "",
          "type": "address[]"
        }
      ],
      "payable": false,
      "stateMutability": "view",
      "type": "function"
    },
    {
      "constant": true,
      "inputs": [],
      "name": "ceoAddress",
      "outputs": [
        {
          "internalType": "address payable",
          "name": "",
          "type": "address"
        }
      ],
      "payable": false,
      "stateMutability": "view",
      "type": "function"
    },
    {
      "constant": false,
      "inputs": [
        {
          "internalType": "address payable",
          "name": "playerAlias",
          "type": "address"
        }
      ],
      "name": "transferAlias",
      "outputs": [],
      "payable": true,
      "stateMutability": "payable",
      "type": "function"
    },
    {
      "constant": true,
      "inputs": [
        {
          "internalType": "uint256",
          "name": "",
          "type": "uint256"
        },
        {
          "internalType": "address",
          "name": "",
          "type": "address"
        }
      ],
      "name": "questionAnswer",
      "outputs": [
        {
          "internalType": "bytes32",
          "name": "",
          "type": "bytes32"
        }
      ],
      "payable": false,
      "stateMutability": "view",
      "type": "function"
    },
    {
      "constant": true,
      "inputs": [
        {
          "internalType": "uint256",
          "name": "",
          "type": "uint256"
        },
        {
          "internalType": "uint256",
          "name": "",
          "type": "uint256"
        }
      ],
      "name": "questionPlayer",
      "outputs": [
        {
          "internalType": "address payable",
          "name": "",
          "type": "address"
        }
      ],
      "payable": false,
      "stateMutability": "view",
      "type": "function"
    },
    {
      "constant": false,
      "inputs": [
        {
          "internalType": "bytes32",
          "name": "_correctAnswer",
          "type": "bytes32"
        }
      ],
      "name": "setQuestion",
      "outputs": [],
      "payable": false,
      "stateMutability": "nonpayable",
      "type": "function"
    },
    {
      "constant": true,
      "inputs": [
        {
          "internalType": "address",
          "name": "",
          "type": "address"
        }
      ],
      "name": "winCount",
      "outputs": [
        {
          "internalType": "uint256",
          "name": "",
          "type": "uint256"
        }
      ],
      "payable": false,
      "stateMutability": "view",
      "type": "function"
    },
    {
      "constant": false,
      "inputs": [],
      "name": "setBounty",
      "outputs": [],
      "payable": true,
      "stateMutability": "payable",
      "type": "function"
    },
    {
      "constant": false,
      "inputs": [
        {
          "internalType": "bytes32",
          "name": "_answer",
          "type": "bytes32"
        }
      ],
      "name": "answer",
      "outputs": [],
      "payable": true,
      "stateMutability": "payable",
      "type": "function"
    },
    {
      "constant": false,
      "inputs": [
        {
          "internalType": "address payable",
          "name": "_newCeo",
          "type": "address"
        }
      ],
      "name": "setCeo",
      "outputs": [],
      "payable": false,
      "stateMutability": "nonpayable",
      "type": "function"
    },
    {
      "constant": true,
      "inputs": [
        {
          "internalType": "uint256",
          "name": "",
          "type": "uint256"
        },
        {
          "internalType": "uint256",
          "name": "",
          "type": "uint256"
        }
      ],
      "name": "questionWinner",
      "outputs": [
        {
          "internalType": "address payable",
          "name": "",
          "type": "address"
        }
      ],
      "payable": false,
      "stateMutability": "view",
      "type": "function"
    },
    {
      "constant": true,
      "inputs": [],
      "name": "bounty",
      "outputs": [
        {
          "internalType": "uint256",
          "name": "",
          "type": "uint256"
        }
      ],
      "payable": false,
      "stateMutability": "view",
      "type": "function"
    },
    {
      "constant": true,
      "inputs": [],
      "name": "deadlineQuestion",
      "outputs": [
        {
          "internalType": "uint256",
          "name": "",
          "type": "uint256"
        }
      ],
      "payable": false,
      "stateMutability": "view",
      "type": "function"
    },
    {
      "constant": true,
      "inputs": [
        {
          "internalType": "uint256",
          "name": "",
          "type": "uint256"
        }
      ],
      "name": "winners",
      "outputs": [
        {
          "internalType": "address payable",
          "name": "",
          "type": "address"
        }
      ],
      "payable": false,
      "stateMutability": "view",
      "type": "function"
    },
    {
      "constant": true,
      "inputs": [],
      "name": "questionBounty",
      "outputs": [
        {
          "internalType": "uint256",
          "name": "",
          "type": "uint256"
        }
      ],
      "payable": false,
      "stateMutability": "view",
      "type": "function"
    },
    {
      "constant": false,
      "inputs": [],
      "name": "shareQuestionBounty",
      "outputs": [],
      "payable": false,
      "stateMutability": "nonpayable",
      "type": "function"
    },
    {
      "constant": true,
      "inputs": [],
      "name": "currentQuestion",
      "outputs": [
        {
          "internalType": "uint8",
          "name": "",
          "type": "uint8"
        }
      ],
      "payable": false,
      "stateMutability": "view",
      "type": "function"
    },
    {
      "constant": true,
      "inputs": [
        {
          "internalType": "uint256",
          "name": "",
          "type": "uint256"
        }
      ],
      "name": "asked",
      "outputs": [
        {
          "internalType": "bool",
          "name": "",
          "type": "bool"
        }
      ],
      "payable": false,
      "stateMutability": "view",
      "type": "function"
    },
    {
      "constant": false,
      "inputs": [],
      "name": "shareBounty",
      "outputs": [],
      "payable": false,
      "stateMutability": "nonpayable",
      "type": "function"
    },
    {
      "constant": true,
      "inputs": [],
      "name": "getAllPlayers",
      "outputs": [
        {
          "name": "",
          "type": "address[]"
        }
      ],
      "payable": false,
      "stateMutability": "view",
      "type": "function"
    },
    {
      "constant": true,
      "inputs": [
        {
          "internalType": "uint256",
          "name": "",
          "type": "uint256"
        }
      ],
      "name": "players",
      "outputs": [
        {
          "internalType": "address payable",
          "name": "",
          "type": "address"
        }
      ],
      "payable": false,
      "stateMutability": "view",
      "type": "function"
    },
    {
      "inputs": [
        {
          "internalType": "address payable",
          "name": "_ceoAddress",
          "type": "address"
        }
      ],
      "payable": false,
      "stateMutability": "nonpayable",
      "type": "constructor"
    },
    {
      "anonymous": false,
      "inputs": [
        {
          "indexed": false,
          "internalType": "uint8",
          "name": "currentQuestion",
          "type": "uint8"
        }
      ],
      "name": "NewQuestion",
      "type": "event"
    }
  ],
  "bytecode": "0x60806040526000601360006101000a81548160ff021916908360ff16021790555034801561002c57600080fd5b506040516020806121448339810180604052602081101561004c57600080fd5b8101908080519060200190929190505050336000806101000a81548173ffffffffffffffffffffffffffffffffffffffff021916908373ffffffffffffffffffffffffffffffffffffffff160217905550806000806101000a81548173ffffffffffffffffffffffffffffffffffffffff021916908373ffffffffffffffffffffffffffffffffffffffff16021790555050612057806100ed6000396000f3fe60806040526004361061011d576000357c0100000000000000000000000000000000000000000000000000000000900463ffffffff1680630454c144146101225780630a0f8168146101b25780630afca22b146102095780630daff5fb1461024d57806322d70fd4146102bc57806338923a5c1461034157806354bd50231461037c5780636dbe21b8146103e15780638807cb40146103eb57806388975198146104195780638b662fb91461046a578063943dfef1146104ef57806395fe93b81461051a578063a2fb117514610545578063ae984858146105c0578063e7d58974146105eb578063e7dea02214610602578063edd3d3d914610633578063edeb5e9e14610686578063efa1c4821461069d578063f71d96cb14610709575b600080fd5b34801561012e57600080fd5b5061015b6004803603602081101561014557600080fd5b8101908080359060200190929190505050610784565b6040518080602001828103825283818151815260200191508051906020019060200280838360005b8381101561019e578082015181840152602081019050610183565b505050509050019250505060405180910390f35b3480156101be57600080fd5b506101c7610825565b604051808273ffffffffffffffffffffffffffffffffffffffff1673ffffffffffffffffffffffffffffffffffffffff16815260200191505060405180910390f35b61024b6004803603602081101561021f57600080fd5b81019080803573ffffffffffffffffffffffffffffffffffffffff16906020019092919050505061084a565b005b34801561025957600080fd5b506102a66004803603604081101561027057600080fd5b8101908080359060200190929190803573ffffffffffffffffffffffffffffffffffffffff1690602001909291905050506109bd565b6040518082815260200191505060405180910390f35b3480156102c857600080fd5b506102ff600480360360408110156102df57600080fd5b8101908080359060200190929190803590602001909291905050506109e2565b604051808273ffffffffffffffffffffffffffffffffffffffff1673ffffffffffffffffffffffffffffffffffffffff16815260200191505060405180910390f35b34801561034d57600080fd5b5061037a6004803603602081101561036457600080fd5b8101908080359060200190929190505050610a2f565b005b34801561038857600080fd5b506103cb6004803603602081101561039f57600080fd5b81019080803573ffffffffffffffffffffffffffffffffffffffff169060200190929190505050610be3565b6040518082815260200191505060405180910390f35b6103e9610bfb565b005b6104176004803603602081101561040157600080fd5b8101908080359060200190929190505050610c85565b005b34801561042557600080fd5b506104686004803603602081101561043c57600080fd5b81019080803573ffffffffffffffffffffffffffffffffffffffff169060200190929190505050611059565b005b34801561047657600080fd5b506104ad6004803603604081101561048d57600080fd5b81019080803590602001909291908035906020019092919050505061119c565b604051808273ffffffffffffffffffffffffffffffffffffffff1673ffffffffffffffffffffffffffffffffffffffff16815260200191505060405180910390f35b3480156104fb57600080fd5b506105046111e9565b6040518082815260200191505060405180910390f35b34801561052657600080fd5b5061052f6111ef565b6040518082815260200191505060405180910390f35b34801561055157600080fd5b5061057e6004803603602081101561056857600080fd5b81019080803590602001909291905050506111f5565b604051808273ffffffffffffffffffffffffffffffffffffffff1673ffffffffffffffffffffffffffffffffffffffff16815260200191505060405180910390f35b3480156105cc57600080fd5b506105d5611233565b6040518082815260200191505060405180910390f35b3480156105f757600080fd5b50610600611239565b005b34801561060e57600080fd5b50610617611a8c565b604051808260ff1660ff16815260200191505060405180910390f35b34801561063f57600080fd5b5061066c6004803603602081101561065657600080fd5b8101908080359060200190929190505050611a9f565b604051808215151515815260200191505060405180910390f35b34801561069257600080fd5b5061069b611abf565b005b3480156106a957600080fd5b506106b2611e97565b6040518080602001828103825283818151815260200191508051906020019060200280838360005b838110156106f55780820151818401526020810190506106da565b505050509050019250505060405180910390f35b34801561071557600080fd5b506107426004803603602081101561072c57600080fd5b8101908080359060200190929190505050611f25565b604051808273ffffffffffffffffffffffffffffffffffffffff1673ffffffffffffffffffffffffffffffffffffffff16815260200191505060405180910390f35b60606008600083815260200190815260200160002080548060200260200160405190810160405280929190818152602001828054801561081957602002820191906000526020600020905b8160009054906101000a900473ffffffffffffffffffffffffffffffffffffffff1673ffffffffffffffffffffffffffffffffffffffff16815260200190600101908083116107cf575b50505050509050919050565b6000809054906101000a900473ffffffffffffffffffffffffffffffffffffffff1681565b600033905060003490506000811115156108cc576040517f08c379a00000000000000000000000000000000000000000000000000000000081526004018080602001828103825260118152602001807f76616c7565206d757374206265203e203000000000000000000000000000000081525060200191505060405180910390fd5b600073ffffffffffffffffffffffffffffffffffffffff168273ffffffffffffffffffffffffffffffffffffffff1614151515610971576040517f08c379a00000000000000000000000000000000000000000000000000000000081526004018080602001828103825260168152602001807f61646472657373206d75737420626520213d203078300000000000000000000081525060200191505060405180910390fd5b8273ffffffffffffffffffffffffffffffffffffffff166108fc829081150290604051600060405180830381858888f193505050501580156109b7573d6000803e3d6000fd5b50505050565b6005602052816000526040600020602052806000526040600020600091509150505481565b6006602052816000526040600020818154811015156109fd57fe5b906000526020600020016000915091509054906101000a900473ffffffffffffffffffffffffffffffffffffffff1681565b6000809054906101000a900473ffffffffffffffffffffffffffffffffffffffff1673ffffffffffffffffffffffffffffffffffffffff163373ffffffffffffffffffffffffffffffffffffffff16141515610af3576040517f08c379a00000000000000000000000000000000000000000000000000000000081526004018080602001828103825260128152602001807f73656e646572206d7573742062652063656f000000000000000000000000000081525060200191505060405180910390fd5b6000601454141515610b0457600080fd5b600a601360009054906101000a900460ff1660ff16101515610b2557600080fd5b806009601360009054906101000a900460ff1660ff16600a81101515610b4757fe5b0181905550600160076000601360009054906101000a900460ff1660ff16815260200190815260200160002060006101000a81548160ff0219169083151502179055507f50da49f24fee0529864a7b8b3fa6cde86950c268e4a8582cf7ac17d3d4c1498d601360009054906101000a900460ff16604051808260ff1660ff16815260200191505060405180910390a16005430160158190555050565b60046020528060005260406000206000915090505481565b600034111515610c73576040517f08c379a00000000000000000000000000000000000000000000000000000000081526004018080602001828103825260128152602001807f626f756e7479206d757374206265203e2030000000000000000000000000000081525060200191505060405180910390fd5b34600160008282540192505081905550565b6015544311151515610c9657600080fd5b60076000601360009054906101000a900460ff1660ff16815260200190815260200160002060009054906101000a900460ff161515610cd457600080fd5b600a601360009054906101000a900460ff1660ff16101515610d5e576040517f08c379a000000000000000000000000000000000000000000000000000000000815260040180806020018281038252601e8152602001807f6f6e6520726f756e6420686173206f6e6c79203130207175657374696f6e000081525060200191505060405180910390fd5b6000809054906101000a900473ffffffffffffffffffffffffffffffffffffffff1673ffffffffffffffffffffffffffffffffffffffff163373ffffffffffffffffffffffffffffffffffffffff1614151515610dba57600080fd5b671bc16d674ec8000034111515610e39576040517f08c379a00000000000000000000000000000000000000000000000000000000081526004018080602001828103825260148152602001807f666565206d757374206265203e203220544f4d4f00000000000000000000000081525060200191505060405180910390fd5b610e6760066000601360009054906101000a900460ff1660ff16815260200190815260200160002033611f63565b151515610edc576040517f08c379a000000000000000000000000000000000000000000000000000000000815260040180806020018281038252601a8152602001807f706c6179657220686173206f6e6c79206f6e6520616e7377657200000000000081525060200191505060405180910390fd5b610ee86014543461200f565b60148190555060066000601360009054906101000a900460ff1660ff1681526020019081526020016000203390806001815401808255809150509060018203906000526020600020016000909192909190916101000a81548173ffffffffffffffffffffffffffffffffffffffff021916908373ffffffffffffffffffffffffffffffffffffffff160217905550508060056000601360009054906101000a900460ff1660ff16815260200190815260200160002060003373ffffffffffffffffffffffffffffffffffffffff1673ffffffffffffffffffffffffffffffffffffffff16815260200190815260200160002081905550610fe9600333611f63565b15156110565760033390806001815401808255809150509060018203906000526020600020016000909192909190916101000a81548173ffffffffffffffffffffffffffffffffffffffff021916908373ffffffffffffffffffffffffffffffffffffffff160217905550505b50565b6000809054906101000a900473ffffffffffffffffffffffffffffffffffffffff1673ffffffffffffffffffffffffffffffffffffffff163373ffffffffffffffffffffffffffffffffffffffff1614151561111d576040517f08c379a00000000000000000000000000000000000000000000000000000000081526004018080602001828103825260128152602001807f73656e646572206d7573742062652063656f000000000000000000000000000081525060200191505060405180910390fd5b600073ffffffffffffffffffffffffffffffffffffffff168173ffffffffffffffffffffffffffffffffffffffff161415151561115957600080fd5b806000806101000a81548173ffffffffffffffffffffffffffffffffffffffff021916908373ffffffffffffffffffffffffffffffffffffffff16021790555050565b6008602052816000526040600020818154811015156111b757fe5b906000526020600020016000915091509054906101000a900473ffffffffffffffffffffffffffffffffffffffff1681565b60015481565b60155481565b60028181548110151561120457fe5b906000526020600020016000915054906101000a900473ffffffffffffffffffffffffffffffffffffffff1681565b60145481565b6000809054906101000a900473ffffffffffffffffffffffffffffffffffffffff1673ffffffffffffffffffffffffffffffffffffffff163373ffffffffffffffffffffffffffffffffffffffff161415156112fd576040517f08c379a00000000000000000000000000000000000000000000000000000000081526004018080602001828103825260128152602001807f73656e646572206d7573742062652063656f000000000000000000000000000081525060200191505060405180910390fd5b6000601454111515611377576040517f08c379a00000000000000000000000000000000000000000000000000000000081526004018080602001828103825260118152602001807f4174206c65617374203120616e7377657200000000000000000000000000000081525060200191505060405180910390fd5b601554431115156113f0576040517f08c379a000000000000000000000000000000000000000000000000000000000815260040180806020018281038252601e8152602001807f53686172696e67206d75737420626520616674657220646561646c696e65000081525060200191505060405180910390fd5b600a601360009054906101000a900460ff1660ff1610151561147a576040517f08c379a000000000000000000000000000000000000000000000000000000000815260040180806020018281038252601e8152602001807f6f6e6520726f756e6420686173206f6e6c79203130207175657374696f6e000081525060200191505060405180910390fd5b60008090505b60066000601360009054906101000a900460ff1660ff16815260200190815260200160002080549050811015611736576009601360009054906101000a900460ff1660ff16600a811015156114d157fe5b015460056000601360009054906101000a900460ff1660ff168152602001908152602001600020600060066000601360009054906101000a900460ff1660ff1681526020019081526020016000208481548110151561152c57fe5b9060005260206000200160009054906101000a900473ffffffffffffffffffffffffffffffffffffffff1673ffffffffffffffffffffffffffffffffffffffff1673ffffffffffffffffffffffffffffffffffffffff1681526020019081526020016000205414156117295760086000601360009054906101000a900460ff1660ff16815260200190815260200160002060066000601360009054906101000a900460ff1660ff168152602001908152602001600020828154811015156115ef57fe5b9060005260206000200160009054906101000a900473ffffffffffffffffffffffffffffffffffffffff1690806001815401808255809150509060018203906000526020600020016000909192909190916101000a81548173ffffffffffffffffffffffffffffffffffffffff021916908373ffffffffffffffffffffffffffffffffffffffff160217905550506004600060066000601360009054906101000a900460ff1660ff168152602001908152602001600020838154811015156116b357fe5b9060005260206000200160009054906101000a900473ffffffffffffffffffffffffffffffffffffffff1673ffffffffffffffffffffffffffffffffffffffff1673ffffffffffffffffffffffffffffffffffffffff168152602001908152602001600020600081548092919060010191905055505b8080600101915050611480565b50600060086000601360009054906101000a900460ff1660ff1681526020019081526020016000208054905011156118cf57600060086000601360009054906101000a900460ff1660ff1681526020019081526020016000208054905060145481151561179f57fe5b04905060008090505b60086000601360009054906101000a900460ff1660ff168152602001908152602001600020805490508160ff16101561188e5760086000601360009054906101000a900460ff1660ff1681526020019081526020016000208160ff1681548110151561181057fe5b9060005260206000200160009054906101000a900473ffffffffffffffffffffffffffffffffffffffff1673ffffffffffffffffffffffffffffffffffffffff166108fc839081150290604051600060405180830381858888f19350505050158015611880573d6000803e3d6000fd5b5080806001019150506117a8565b506013600081819054906101000a900460ff168092919060010191906101000a81548160ff021916908360ff160217905550506000601481905550506118ec565b600a601360006101000a81548160ff021916908360ff1602179055505b6009601360009054906101000a900460ff1660ff16101515611a8a5760008090505b6006600060098152602001908152602001600020805490508160ff161015611a8857600a6004600060066000600981526020019081526020016000208460ff1681548110151561195a57fe5b9060005260206000200160009054906101000a900473ffffffffffffffffffffffffffffffffffffffff1673ffffffffffffffffffffffffffffffffffffffff1673ffffffffffffffffffffffffffffffffffffffff168152602001908152602001600020541415611a7b57600260066000600981526020019081526020016000208260ff168154811015156119ec57fe5b9060005260206000200160009054906101000a900473ffffffffffffffffffffffffffffffffffffffff1690806001815401808255809150509060018203906000526020600020016000909192909190916101000a81548173ffffffffffffffffffffffffffffffffffffffff021916908373ffffffffffffffffffffffffffffffffffffffff160217905550505b808060010191505061190e565b505b565b601360009054906101000a900460ff1681565b60076020528060005260406000206000915054906101000a900460ff1681565b6000809054906101000a900473ffffffffffffffffffffffffffffffffffffffff1673ffffffffffffffffffffffffffffffffffffffff163373ffffffffffffffffffffffffffffffffffffffff16141515611b83576040517f08c379a00000000000000000000000000000000000000000000000000000000081526004018080602001828103825260128152602001807f73656e646572206d7573742062652063656f000000000000000000000000000081525060200191505060405180910390fd5b6000600154111515611bfd576040517f08c379a00000000000000000000000000000000000000000000000000000000081526004018080602001828103825260128152602001807f426f756e7479206d757374206265203e2030000000000000000000000000000081525060200191505060405180910390fd5b60155443111515611c76576040517f08c379a000000000000000000000000000000000000000000000000000000000815260040180806020018281038252601e8152602001807f53686172696e67206d75737420626520616674657220646561646c696e65000081525060200191505060405180910390fd5b6009601360009054906101000a900460ff1660ff16111515611d26576040517f08c379a00000000000000000000000000000000000000000000000000000000081526004018080602001828103825260288152602001807f53686172696e6720626f756e7479206d7573742062652061667465722031302081526020017f7175657374696f6e00000000000000000000000000000000000000000000000081525060400191505060405180910390fd5b60006002805490501115611e0d5760006002805490503073ffffffffffffffffffffffffffffffffffffffff1631811515611d5d57fe5b04905060008090505b6002805490508160ff161015611e065760028160ff16815481101515611d8857fe5b9060005260206000200160009054906101000a900473ffffffffffffffffffffffffffffffffffffffff1673ffffffffffffffffffffffffffffffffffffffff166108fc839081150290604051600060405180830381858888f19350505050158015611df8573d6000803e3d6000fd5b508080600101915050611d66565b5050611e8d565b6000809054906101000a900473ffffffffffffffffffffffffffffffffffffffff1673ffffffffffffffffffffffffffffffffffffffff166108fc3073ffffffffffffffffffffffffffffffffffffffff16319081150290604051600060405180830381858888f19350505050158015611e8b573d6000803e3d6000fd5b505b6000600181905550565b60606003805480602002602001604051908101604052809291908181526020018280548015611f1b57602002820191906000526020600020905b8160009054906101000a900473ffffffffffffffffffffffffffffffffffffffff1673ffffffffffffffffffffffffffffffffffffffff1681526020019060010190808311611ed1575b5050505050905090565b600381815481101515611f3457fe5b906000526020600020016000915054906101000a900473ffffffffffffffffffffffffffffffffffffffff1681565b6000806000905060008090505b84805490508160ff161015612004578373ffffffffffffffffffffffffffffffffffffffff16858260ff16815481101515611fa757fe5b9060005260206000200160009054906101000a900473ffffffffffffffffffffffffffffffffffffffff1673ffffffffffffffffffffffffffffffffffffffff161415611ff75760019150612004565b8080600101915050611f70565b508091505092915050565b6000818301905082811015151561202557600080fd5b9291505056fea165627a7a72305820442e8ebc78d5f1f66c0b971d96cc61fa2f85376981e56384faa0feedee16e1710029",
  "source": "pragma solidity ^0.5.0;\n\nimport \"./AccessControl.sol\";\n\ncontract Game is AccessControl {\n    uint public bounty;\n    address payable[] public winners;\n\n    address payable[] public players;\n    mapping (address=>uint) public winCount;\n    \n    mapping (uint => mapping(address => bytes32)) public questionAnswer; // lu cu tr li ca cc a ch  mi cu hi \n    mapping (uint => address payable[]) public questionPlayer; // lu mng nhng a ch tr li trong mi cu hi \n    mapping (uint => bool) public asked; // check xem CEO  a ra cu hi hay cha \n    mapping (uint => address payable[]) public questionWinner; // lu nhng a ch tr li ng  mi cu hi \n\n    bytes32[10] private correctAnswer;\n    uint8 public currentQuestion = 0;\n    uint256 public questionBounty;\n    uint public deadlineQuestion;\n\n    event NewQuestion(uint8 currentQuestion);\n    \n    constructor(address payable _ceoAddress) public {\n        ceoAddress = _ceoAddress;\n    }\n\n    function setBounty() \n        public \n        payable \n    {\n        require(msg.value > 0, \"bounty must be > 0\");\n        bounty += msg.value;\n    }\n\n    modifier hasBounty() {\n        require(bounty > 0, \"Bounty must be > 0\");\n        _;\n    }\n\n    modifier beforeDeadline() {\n        require(block.number <= deadlineQuestion);\n        _;\n    }\n\n    function transferAlias(address payable playerAlias) external payable {\n        address payable player = msg.sender;\n        uint value = msg.value;\n\n        require(value > 0, \"value must be > 0\");\n        require(player != address(0x0), \"address must be != 0x0\");\n        playerAlias.transfer(value);\n    }\n\n    // check 1 address  tn ti trong 1 mng hay cha \n    function containArray(address payable[] storage array, address element) \n        internal \n        returns (bool) \n    {\n        bool found = false;\n        for(uint8 i = 0; i < array.length; i++) {\n            if(array[i] == element) {\n                found = true;\n                break;\n            }\n        }\n        return found;\n    }\n\n    function setQuestion(bytes32 _correctAnswer) \n        onlyCeo\n        external \n    {\n        require(questionBounty == 0); // trnh trng hp ngi chi ang chi ceo t cu mi \n        require(currentQuestion < 10);\n        correctAnswer[currentQuestion] = _correctAnswer;\n        asked[currentQuestion] = true;\n        emit NewQuestion(currentQuestion);\n        deadlineQuestion = block.number + 5;\n    }\n\n    function answer(bytes32 _answer) \n        beforeDeadline \n        external \n        payable \n    {\n        require(asked[currentQuestion]); // ch c tr li sau khi cu hi  c a ra \n        require(currentQuestion < 10, \"one round has only 10 question\");\n        require(msg.sender != ceoAddress);\n        require(msg.value > 2 * 10 ** 18, \"fee must be > 2 TOMO\");\n        require(!containArray(questionPlayer[currentQuestion], msg.sender), \"player has only one answer\");\n        questionBounty = safeAdd(questionBounty, msg.value);\n        questionPlayer[currentQuestion].push(address(uint160(msg.sender)));\n        questionAnswer[currentQuestion][msg.sender] = _answer;\n        if(!containArray(players, msg.sender)) {\n            players.push(msg.sender);\n        }\n    }\n\n    function shareQuestionBounty() \n        onlyCeo \n        external \n    {\n        require(questionBounty > 0, \"At least 1 answer\");\n        require(block.number > deadlineQuestion, \"Sharing must be after deadline\");\n        require(currentQuestion < 10, \"one round has only 10 question\");\n        \n        for(uint i = 0; i < questionPlayer[currentQuestion].length; i++) {\n            if(questionAnswer[currentQuestion][questionPlayer[currentQuestion][i]] == correctAnswer[currentQuestion]) {\n                questionWinner[currentQuestion].push(questionPlayer[currentQuestion][i]);\n                winCount[questionPlayer[currentQuestion][i]] ++;\n            }\n        }\n        \n        if(questionWinner[currentQuestion].length > 0) {\n            uint bountySharing = questionBounty / questionWinner[currentQuestion].length;\n            for(uint8 i = 0; i < questionWinner[currentQuestion].length; i++) {\n                questionWinner[currentQuestion][i].transfer(bountySharing);\n            }\n            currentQuestion ++;\n            questionBounty = 0;\n        } \n        else {\n            currentQuestion = 10;\n        }\n        \n        /*\n            Mun n c bounty th t nht phi tham gia tr li c 10 cu hi\n            => ch cn xt trong s nhng ngi tham gia  cu cui  tm ra ngi c winCount = 10 \n        */ \n        if(currentQuestion >= 9) {\n            for(uint8 i = 0; i < questionPlayer[9].length; i++) {\n                if(winCount[questionPlayer[9][i]] == 10) {\n                    winners.push(questionPlayer[9][i]); \n                }\n            }\n        }\n    }\n\n    function shareBounty() \n        onlyCeo \n        hasBounty \n        external \n    {\n        require(block.number > deadlineQuestion, \"Sharing must be after deadline\");\n        require(currentQuestion > 9, \"Sharing bounty must be after 10 question\");\n        \n        if(winners.length > 0) {\n            uint bountySharing = address(this).balance / winners.length;\n            for(uint8 i = 0; i < winners.length; i++) {\n                winners[i].transfer(bountySharing);\n            }\n        } \n        else {\n            ceoAddress.transfer(address(this).balance);\n        }\n        \n        bounty = 0;\n    }\n\n    function safeAdd(uint256 a, uint256 b) internal pure returns (uint256 c) {\n        c = a + b;\n        require(c >= a);\n    }\n    function safeSub(uint256 a, uint256 b) internal pure returns (uint256 c) {\n        require(b <= a);\n        c = a - b;\n    }\n    function safeMul(uint256 a, uint256 b) internal pure returns (uint256 c) {\n        c = a * b;\n        require(a == 0 || c / a == b);\n    }\n    function safeDiv(uint256 a, uint256 b) internal pure returns (uint256 c) {\n        require(b > 0);\n        c = a / b;\n    }\n\n    function getAllPlayers() public view returns (address payable[] memory) {\n        return players;\n    }\n\n    function getCorrectAddressByQuestion(uint questionIndex) public view returns (address payable[] memory) {\n        return questionWinner[questionIndex];\n    }\n}\n",
  "sourcePath": "/home/tran.minh.chien/Workspace/Blockchain/tomoGame/contracts/Game.sol",
  "compiler": {
    "name": "solc",
    "version": "0.5.0+commit.1d4f565a.Emscripten.clang"
  },
  "schemaVersion": "3.0.6",
  "updatedAt": "2019-08-09T00:59:32.875Z",
  "devdoc": {
    "methods": {}
  },
  "userdoc": {
    "methods": {}
  }
}