{
  "contractName": "Game",
  "abi": [
    {
      "constant": true,
      "inputs": [],
      "name": "ceoAddress",
      "outputs": [
        {
          "name": "",
          "type": "address"
        }
      ],
      "payable": false,
      "stateMutability": "view",
      "type": "function"
    },
    {
      "constant": true,
      "inputs": [
        {
          "name": "",
          "type": "uint256"
        },
        {
          "name": "",
          "type": "address"
        }
      ],
      "name": "questionAnswer",
      "outputs": [
        {
          "name": "",
          "type": "bytes32"
        }
      ],
      "payable": false,
      "stateMutability": "view",
      "type": "function"
    },
    {
      "constant": true,
      "inputs": [
        {
          "name": "",
          "type": "uint256"
        },
        {
          "name": "",
          "type": "uint256"
        }
      ],
      "name": "questionPlayer",
      "outputs": [
        {
          "name": "",
          "type": "address"
        }
      ],
      "payable": false,
      "stateMutability": "view",
      "type": "function"
    },
    {
      "constant": false,
      "inputs": [
        {
          "name": "_newCeo",
          "type": "address"
        }
      ],
      "name": "setCeo",
      "outputs": [],
      "payable": false,
      "stateMutability": "nonpayable",
      "type": "function"
    },
    {
      "constant": true,
      "inputs": [
        {
          "name": "",
          "type": "uint256"
        },
        {
          "name": "",
          "type": "uint256"
        }
      ],
      "name": "questionWinner",
      "outputs": [
        {
          "name": "",
          "type": "address"
        }
      ],
      "payable": false,
      "stateMutability": "view",
      "type": "function"
    },
    {
      "constant": true,
      "inputs": [],
      "name": "bounty",
      "outputs": [
        {
          "name": "",
          "type": "uint256"
        }
      ],
      "payable": false,
      "stateMutability": "view",
      "type": "function"
    },
    {
      "constant": true,
      "inputs": [],
      "name": "deadlineQuestion",
      "outputs": [
        {
          "name": "",
          "type": "uint256"
        }
      ],
      "payable": false,
      "stateMutability": "view",
      "type": "function"
    },
    {
      "constant": true,
      "inputs": [
        {
          "name": "",
          "type": "uint256"
        }
      ],
      "name": "winners",
      "outputs": [
        {
          "name": "",
          "type": "address"
        }
      ],
      "payable": false,
      "stateMutability": "view",
      "type": "function"
    },
    {
      "constant": true,
      "inputs": [],
      "name": "questionBounty",
      "outputs": [
        {
          "name": "",
          "type": "uint256"
        }
      ],
      "payable": false,
      "stateMutability": "view",
      "type": "function"
    },
    {
      "constant": true,
      "inputs": [],
      "name": "currentQuestion",
      "outputs": [
        {
          "name": "",
          "type": "uint8"
        }
      ],
      "payable": false,
      "stateMutability": "view",
      "type": "function"
    },
    {
      "constant": true,
      "inputs": [
        {
          "name": "",
          "type": "uint256"
        }
      ],
      "name": "asked",
      "outputs": [
        {
          "name": "",
          "type": "bool"
        }
      ],
      "payable": false,
      "stateMutability": "view",
      "type": "function"
    },
    {
      "constant": true,
      "inputs": [
        {
          "name": "",
          "type": "uint256"
        }
      ],
      "name": "players",
      "outputs": [
        {
          "name": "",
          "type": "address"
        }
      ],
      "payable": false,
      "stateMutability": "view",
      "type": "function"
    },
    {
      "inputs": [
        {
          "name": "_ceoAddress",
          "type": "address"
        }
      ],
      "payable": false,
      "stateMutability": "nonpayable",
      "type": "constructor"
    },
    {
      "anonymous": false,
      "inputs": [
        {
          "indexed": false,
          "name": "currentQuestion",
          "type": "uint8"
        }
      ],
      "name": "NewQuestion",
      "type": "event"
    },
    {
      "constant": false,
      "inputs": [],
      "name": "setBounty",
      "outputs": [],
      "payable": true,
      "stateMutability": "payable",
      "type": "function"
    },
    {
      "constant": false,
      "inputs": [
        {
          "name": "_correctAnswer",
          "type": "bytes32"
        }
      ],
      "name": "setQuestion",
      "outputs": [],
      "payable": false,
      "stateMutability": "nonpayable",
      "type": "function"
    },
    {
      "constant": false,
      "inputs": [
        {
          "name": "_answer",
          "type": "bytes32"
        }
      ],
      "name": "answer",
      "outputs": [],
      "payable": true,
      "stateMutability": "payable",
      "type": "function"
    },
    {
      "constant": false,
      "inputs": [],
      "name": "shareQuestionBounty",
      "outputs": [],
      "payable": false,
      "stateMutability": "nonpayable",
      "type": "function"
    },
    {
      "constant": false,
      "inputs": [],
      "name": "shareBounty",
      "outputs": [],
      "payable": false,
      "stateMutability": "nonpayable",
      "type": "function"
    }
  ],
  "bytecode": "0x60806040526000601360006101000a81548160ff021916908360ff16021790555034801561002c57600080fd5b50604051602080611aac8339810180604052602081101561004c57600080fd5b8101908080519060200190929190505050336000806101000a81548173ffffffffffffffffffffffffffffffffffffffff021916908373ffffffffffffffffffffffffffffffffffffffff160217905550806000806101000a81548173ffffffffffffffffffffffffffffffffffffffff021916908373ffffffffffffffffffffffffffffffffffffffff160217905550506119bf806100ed6000396000f3fe6080604052600436106100f1576000357c0100000000000000000000000000000000000000000000000000000000900463ffffffff1680630a0f8168146100f65780630daff5fb1461014d57806322d70fd4146101bc57806338923a5c146102415780636dbe21b81461027c5780638807cb401461028657806388975198146102b45780638b662fb914610305578063943dfef11461038a57806395fe93b8146103b5578063a2fb1175146103e0578063ae9848581461045b578063e7d5897414610486578063e7dea0221461049d578063edd3d3d9146104ce578063edeb5e9e14610521578063f71d96cb14610538575b600080fd5b34801561010257600080fd5b5061010b6105b3565b604051808273ffffffffffffffffffffffffffffffffffffffff1673ffffffffffffffffffffffffffffffffffffffff16815260200191505060405180910390f35b34801561015957600080fd5b506101a66004803603604081101561017057600080fd5b8101908080359060200190929190803573ffffffffffffffffffffffffffffffffffffffff1690602001909291905050506105d8565b6040518082815260200191505060405180910390f35b3480156101c857600080fd5b506101ff600480360360408110156101df57600080fd5b8101908080359060200190929190803590602001909291905050506105fd565b604051808273ffffffffffffffffffffffffffffffffffffffff1673ffffffffffffffffffffffffffffffffffffffff16815260200191505060405180910390f35b34801561024d57600080fd5b5061027a6004803603602081101561026457600080fd5b810190808035906020019092919050505061064a565b005b610284610795565b005b6102b26004803603602081101561029c57600080fd5b810190808035906020019092919050505061081f565b005b3480156102c057600080fd5b50610303600480360360208110156102d757600080fd5b81019080803573ffffffffffffffffffffffffffffffffffffffff169060200190929190505050610bf3565b005b34801561031157600080fd5b506103486004803603604081101561032857600080fd5b810190808035906020019092919080359060200190929190505050610ccd565b604051808273ffffffffffffffffffffffffffffffffffffffff1673ffffffffffffffffffffffffffffffffffffffff16815260200191505060405180910390f35b34801561039657600080fd5b5061039f610d1a565b6040518082815260200191505060405180910390f35b3480156103c157600080fd5b506103ca610d20565b6040518082815260200191505060405180910390f35b3480156103ec57600080fd5b506104196004803603602081101561040357600080fd5b8101908080359060200190929190505050610d26565b604051808273ffffffffffffffffffffffffffffffffffffffff1673ffffffffffffffffffffffffffffffffffffffff16815260200191505060405180910390f35b34801561046757600080fd5b50610470610d64565b6040518082815260200191505060405180910390f35b34801561049257600080fd5b5061049b610d6a565b005b3480156104a957600080fd5b506104b26114eb565b604051808260ff1660ff16815260200191505060405180910390f35b3480156104da57600080fd5b50610507600480360360208110156104f157600080fd5b81019080803590602001909291905050506114fe565b604051808215151515815260200191505060405180910390f35b34801561052d57600080fd5b5061053661151e565b005b34801561054457600080fd5b506105716004803603602081101561055b57600080fd5b810190808035906020019092919050505061188d565b604051808273ffffffffffffffffffffffffffffffffffffffff1673ffffffffffffffffffffffffffffffffffffffff16815260200191505060405180910390f35b6000809054906101000a900473ffffffffffffffffffffffffffffffffffffffff1681565b6005602052816000526040600020602052806000526040600020600091509150505481565b60066020528160005260406000208181548110151561061857fe5b906000526020600020016000915091509054906101000a900473ffffffffffffffffffffffffffffffffffffffff1681565b6000809054906101000a900473ffffffffffffffffffffffffffffffffffffffff1673ffffffffffffffffffffffffffffffffffffffff163373ffffffffffffffffffffffffffffffffffffffff161415156106a557600080fd5b60006014541415156106b657600080fd5b600a601360009054906101000a900460ff1660ff161015156106d757600080fd5b806009601360009054906101000a900460ff1660ff16600a811015156106f957fe5b0181905550600160076000601360009054906101000a900460ff1660ff16815260200190815260200160002060006101000a81548160ff0219169083151502179055507f50da49f24fee0529864a7b8b3fa6cde86950c268e4a8582cf7ac17d3d4c1498d601360009054906101000a900460ff16604051808260ff1660ff16815260200191505060405180910390a16005430160158190555050565b60003411151561080d576040517f08c379a00000000000000000000000000000000000000000000000000000000081526004018080602001828103825260128152602001807f626f756e7479206d757374206265203e2030000000000000000000000000000081525060200191505060405180910390fd5b34600160008282540192505081905550565b601554431115151561083057600080fd5b60076000601360009054906101000a900460ff1660ff16815260200190815260200160002060009054906101000a900460ff16151561086e57600080fd5b600a601360009054906101000a900460ff1660ff161015156108f8576040517f08c379a000000000000000000000000000000000000000000000000000000000815260040180806020018281038252601e8152602001807f6f6e6520726f756e6420686173206f6e6c79203130207175657374696f6e000081525060200191505060405180910390fd5b6000809054906101000a900473ffffffffffffffffffffffffffffffffffffffff1673ffffffffffffffffffffffffffffffffffffffff163373ffffffffffffffffffffffffffffffffffffffff161415151561095457600080fd5b671bc16d674ec80000341115156109d3576040517f08c379a00000000000000000000000000000000000000000000000000000000081526004018080602001828103825260148152602001807f666565206d757374206265203e203220544f4d4f00000000000000000000000081525060200191505060405180910390fd5b610a0160066000601360009054906101000a900460ff1660ff168152602001908152602001600020336118cb565b151515610a76576040517f08c379a000000000000000000000000000000000000000000000000000000000815260040180806020018281038252601a8152602001807f706c6179657220686173206f6e6c79206f6e6520616e7377657200000000000081525060200191505060405180910390fd5b610a8260145434611977565b60148190555060066000601360009054906101000a900460ff1660ff1681526020019081526020016000203390806001815401808255809150509060018203906000526020600020016000909192909190916101000a81548173ffffffffffffffffffffffffffffffffffffffff021916908373ffffffffffffffffffffffffffffffffffffffff160217905550508060056000601360009054906101000a900460ff1660ff16815260200190815260200160002060003373ffffffffffffffffffffffffffffffffffffffff1673ffffffffffffffffffffffffffffffffffffffff16815260200190815260200160002081905550610b836003336118cb565b1515610bf05760033390806001815401808255809150509060018203906000526020600020016000909192909190916101000a81548173ffffffffffffffffffffffffffffffffffffffff021916908373ffffffffffffffffffffffffffffffffffffffff160217905550505b50565b6000809054906101000a900473ffffffffffffffffffffffffffffffffffffffff1673ffffffffffffffffffffffffffffffffffffffff163373ffffffffffffffffffffffffffffffffffffffff16141515610c4e57600080fd5b600073ffffffffffffffffffffffffffffffffffffffff168173ffffffffffffffffffffffffffffffffffffffff1614151515610c8a57600080fd5b806000806101000a81548173ffffffffffffffffffffffffffffffffffffffff021916908373ffffffffffffffffffffffffffffffffffffffff16021790555050565b600860205281600052604060002081815481101515610ce857fe5b906000526020600020016000915091509054906101000a900473ffffffffffffffffffffffffffffffffffffffff1681565b60015481565b60155481565b600281815481101515610d3557fe5b906000526020600020016000915054906101000a900473ffffffffffffffffffffffffffffffffffffffff1681565b60145481565b6000809054906101000a900473ffffffffffffffffffffffffffffffffffffffff1673ffffffffffffffffffffffffffffffffffffffff163373ffffffffffffffffffffffffffffffffffffffff16141515610dc557600080fd5b6000601454111515610dd657600080fd5b60155443111515610e4f576040517f08c379a000000000000000000000000000000000000000000000000000000000815260040180806020018281038252601e8152602001807f53686172696e67206d75737420626520616674657220646561646c696e65000081525060200191505060405180910390fd5b600a601360009054906101000a900460ff1660ff16101515610ed9576040517f08c379a000000000000000000000000000000000000000000000000000000000815260040180806020018281038252601e8152602001807f6f6e6520726f756e6420686173206f6e6c79203130207175657374696f6e000081525060200191505060405180910390fd5b60008090505b60066000601360009054906101000a900460ff1660ff16815260200190815260200160002080549050811015611195576009601360009054906101000a900460ff1660ff16600a81101515610f3057fe5b015460056000601360009054906101000a900460ff1660ff168152602001908152602001600020600060066000601360009054906101000a900460ff1660ff16815260200190815260200160002084815481101515610f8b57fe5b9060005260206000200160009054906101000a900473ffffffffffffffffffffffffffffffffffffffff1673ffffffffffffffffffffffffffffffffffffffff1673ffffffffffffffffffffffffffffffffffffffff1681526020019081526020016000205414156111885760086000601360009054906101000a900460ff1660ff16815260200190815260200160002060066000601360009054906101000a900460ff1660ff1681526020019081526020016000208281548110151561104e57fe5b9060005260206000200160009054906101000a900473ffffffffffffffffffffffffffffffffffffffff1690806001815401808255809150509060018203906000526020600020016000909192909190916101000a81548173ffffffffffffffffffffffffffffffffffffffff021916908373ffffffffffffffffffffffffffffffffffffffff160217905550506004600060066000601360009054906101000a900460ff1660ff1681526020019081526020016000208381548110151561111257fe5b9060005260206000200160009054906101000a900473ffffffffffffffffffffffffffffffffffffffff1673ffffffffffffffffffffffffffffffffffffffff1673ffffffffffffffffffffffffffffffffffffffff168152602001908152602001600020600081548092919060010191905055505b8080600101915050610edf565b50600060086000601360009054906101000a900460ff1660ff16815260200190815260200160002080549050111561132e57600060086000601360009054906101000a900460ff1660ff168152602001908152602001600020805490506014548115156111fe57fe5b04905060008090505b60086000601360009054906101000a900460ff1660ff168152602001908152602001600020805490508160ff1610156112ed5760086000601360009054906101000a900460ff1660ff1681526020019081526020016000208160ff1681548110151561126f57fe5b9060005260206000200160009054906101000a900473ffffffffffffffffffffffffffffffffffffffff1673ffffffffffffffffffffffffffffffffffffffff166108fc839081150290604051600060405180830381858888f193505050501580156112df573d6000803e3d6000fd5b508080600101915050611207565b506013600081819054906101000a900460ff168092919060010191906101000a81548160ff021916908360ff1602179055505060006014819055505061134b565b600a601360006101000a81548160ff021916908360ff1602179055505b6009601360009054906101000a900460ff1660ff161015156114e95760008090505b6006600060098152602001908152602001600020805490508160ff1610156114e757600a6004600060066000600981526020019081526020016000208460ff168154811015156113b957fe5b9060005260206000200160009054906101000a900473ffffffffffffffffffffffffffffffffffffffff1673ffffffffffffffffffffffffffffffffffffffff1673ffffffffffffffffffffffffffffffffffffffff1681526020019081526020016000205414156114da57600260066000600981526020019081526020016000208260ff1681548110151561144b57fe5b9060005260206000200160009054906101000a900473ffffffffffffffffffffffffffffffffffffffff1690806001815401808255809150509060018203906000526020600020016000909192909190916101000a81548173ffffffffffffffffffffffffffffffffffffffff021916908373ffffffffffffffffffffffffffffffffffffffff160217905550505b808060010191505061136d565b505b565b601360009054906101000a900460ff1681565b60076020528060005260406000206000915054906101000a900460ff1681565b6000809054906101000a900473ffffffffffffffffffffffffffffffffffffffff1673ffffffffffffffffffffffffffffffffffffffff163373ffffffffffffffffffffffffffffffffffffffff1614151561157957600080fd5b60006001541115156115f3576040517f08c379a00000000000000000000000000000000000000000000000000000000081526004018080602001828103825260128152602001807f426f756e7479206d757374206265203e2030000000000000000000000000000081525060200191505060405180910390fd5b6015544311151561166c576040517f08c379a000000000000000000000000000000000000000000000000000000000815260040180806020018281038252601e8152602001807f53686172696e67206d75737420626520616674657220646561646c696e65000081525060200191505060405180910390fd5b6009601360009054906101000a900460ff1660ff1611151561171c576040517f08c379a00000000000000000000000000000000000000000000000000000000081526004018080602001828103825260288152602001807f53686172696e6720626f756e7479206d7573742062652061667465722031302081526020017f7175657374696f6e00000000000000000000000000000000000000000000000081525060400191505060405180910390fd5b600060028054905011156118035760006002805490503073ffffffffffffffffffffffffffffffffffffffff163181151561175357fe5b04905060008090505b6002805490508160ff1610156117fc5760028160ff1681548110151561177e57fe5b9060005260206000200160009054906101000a900473ffffffffffffffffffffffffffffffffffffffff1673ffffffffffffffffffffffffffffffffffffffff166108fc839081150290604051600060405180830381858888f193505050501580156117ee573d6000803e3d6000fd5b50808060010191505061175c565b5050611883565b6000809054906101000a900473ffffffffffffffffffffffffffffffffffffffff1673ffffffffffffffffffffffffffffffffffffffff166108fc3073ffffffffffffffffffffffffffffffffffffffff16319081150290604051600060405180830381858888f19350505050158015611881573d6000803e3d6000fd5b505b6000600181905550565b60038181548110151561189c57fe5b906000526020600020016000915054906101000a900473ffffffffffffffffffffffffffffffffffffffff1681565b6000806000905060008090505b84805490508160ff16101561196c578373ffffffffffffffffffffffffffffffffffffffff16858260ff1681548110151561190f57fe5b9060005260206000200160009054906101000a900473ffffffffffffffffffffffffffffffffffffffff1673ffffffffffffffffffffffffffffffffffffffff16141561195f576001915061196c565b80806001019150506118d8565b508091505092915050565b6000818301905082811015151561198d57600080fd5b9291505056fea165627a7a7230582093fc77d9253b67c5b9c2b8c72a86a3196aa48abb34ddc2bee97e2d5390cc38600029",
  "source": "pragma solidity ^0.5.0;\n\nimport \"./AccessControl.sol\";\n\ncontract Game is AccessControl {\n    uint public bounty;\n    address payable[] public winners;\n\n    address payable[] public players;\n    mapping (address=>uint) winCount;\n    \n    mapping (uint => mapping(address => bytes32)) public questionAnswer; // lưu câu trả lời của các địa chỉ ở mỗi câu hỏi \n    mapping (uint => address payable[]) public questionPlayer; // lưu mảng những địa chỉ trả lời trong mỗi câu hỏi \n    mapping (uint => bool) public asked; // check xem CEO đã đưa ra câu hỏi hay chưa \n    mapping (uint => address payable[]) public questionWinner; // lưu những địa chỉ trả lời đúng ở mỗi câu hỏi \n\n    bytes32[10] private correctAnswer;\n    uint8 public currentQuestion = 0;\n    uint256 public questionBounty;\n    uint public deadlineQuestion;\n\n    event NewQuestion(uint8 currentQuestion);\n    \n    constructor(address payable _ceoAddress) public {\n        ceoAddress = _ceoAddress;\n    }\n\n    function setBounty() \n        public \n        payable \n    {\n        require(msg.value > 0, \"bounty must be > 0\");\n        bounty += msg.value;\n    }\n\n    modifier hasBounty() {\n        require(bounty > 0, \"Bounty must be > 0\");\n        _;\n    }\n\n    modifier beforeDeadline() {\n        require(block.number <= deadlineQuestion);\n        _;\n    }\n\n    // check 1 address đã tồn tại trong 1 mảng hay chưa \n    function containArray(address payable[] storage array, address element) \n        internal \n        returns (bool) \n    {\n        bool found = false;\n        for(uint8 i = 0; i < array.length; i++) {\n            if(array[i] == element) {\n                found = true;\n                break;\n            }\n        }\n        return found;\n    }\n\n    function setQuestion(bytes32 _correctAnswer) \n        onlyCeo\n        external \n        {\n            require(questionBounty == 0); // tránh trường hợp người chơi đang chơi ceo đặt câu mới \n            require(currentQuestion < 10);\n            correctAnswer[currentQuestion] = _correctAnswer;\n            asked[currentQuestion] = true;\n            emit NewQuestion(currentQuestion);\n            deadlineQuestion = block.number + 5;\n        }\n\n    function answer(bytes32 _answer) \n        beforeDeadline \n        external \n        payable \n    {\n        require(asked[currentQuestion]); // chỉ được trả lời sau khi câu hỏi đã được đưa ra \n        require(currentQuestion < 10, \"one round has only 10 question\");\n        require(msg.sender != ceoAddress);\n        require(msg.value > 2 * 10 ** 18, \"fee must be > 2 TOMO\");\n        require(!containArray(questionPlayer[currentQuestion], msg.sender), \"player has only one answer\");\n        questionBounty = safeAdd(questionBounty, msg.value);\n        questionPlayer[currentQuestion].push(address(uint160(msg.sender)));\n        questionAnswer[currentQuestion][msg.sender] = _answer;\n        if(!containArray(players, msg.sender)) {\n            players.push(msg.sender);\n        }\n    }\n\n    function shareQuestionBounty() \n        onlyCeo \n        external \n    {\n        require(questionBounty > 0);\n        require(block.number > deadlineQuestion, \"Sharing must be after deadline\");\n        require(currentQuestion < 10, \"one round has only 10 question\");\n        \n        for(uint i = 0; i < questionPlayer[currentQuestion].length; i++) {\n            if(questionAnswer[currentQuestion][questionPlayer[currentQuestion][i]] == correctAnswer[currentQuestion]) {\n                questionWinner[currentQuestion].push(questionPlayer[currentQuestion][i]);\n                winCount[questionPlayer[currentQuestion][i]] ++;\n            }\n        }\n        \n        if(questionWinner[currentQuestion].length > 0) {\n            uint bountySharing = questionBounty / questionWinner[currentQuestion].length;\n            for(uint8 i = 0; i < questionWinner[currentQuestion].length; i++) {\n                questionWinner[currentQuestion][i].transfer(bountySharing);\n            }\n            currentQuestion ++;\n            questionBounty = 0;\n        } \n        else {\n            currentQuestion = 10;\n        }\n        \n        /*\n            Muốn ăn được bounty thì ít nhất phải tham gia trả lời cả 10 câu hỏi\n            => chỉ cần xét trong số những người tham gia ở câu cuối để tìm ra người có winCount = 10 \n        */ \n        if(currentQuestion >= 9) {\n            for(uint8 i = 0; i < questionPlayer[9].length; i++) {\n                if(winCount[questionPlayer[9][i]] == 10) {\n                    winners.push(questionPlayer[9][i]); \n                }\n            }\n        }\n    }\n\n    function shareBounty() \n        onlyCeo \n        hasBounty \n        external \n    {\n        require(block.number > deadlineQuestion, \"Sharing must be after deadline\");\n        require(currentQuestion > 9, \"Sharing bounty must be after 10 question\");\n        \n        if(winners.length > 0) {\n            uint bountySharing = address(this).balance / winners.length;\n            for(uint8 i = 0; i < winners.length; i++) {\n                winners[i].transfer(bountySharing);\n            }\n        } \n        else {\n            ceoAddress.transfer(address(this).balance);\n        }\n        \n        bounty = 0;\n    }\n\n    function safeAdd(uint256 a, uint256 b) internal pure returns (uint256 c) {\n        c = a + b;\n        require(c >= a);\n    }\n    function safeSub(uint256 a, uint256 b) internal pure returns (uint256 c) {\n        require(b <= a);\n        c = a - b;\n    }\n    function safeMul(uint256 a, uint256 b) internal pure returns (uint256 c) {\n        c = a * b;\n        require(a == 0 || c / a == b);\n    }\n    function safeDiv(uint256 a, uint256 b) internal pure returns (uint256 c) {\n        require(b > 0);\n        c = a / b;\n    }\n}\n",
  "sourcePath": "/home/tran.minh.chien/Workspace/Blockchain/tomoGame/contracts/Game.sol",
  "compiler": {
    "name": "solc",
    "version": "0.5.0+commit.1d4f565a.Emscripten.clang"
  },
  "schemaVersion": "3.0.6",
  "updatedAt": "2019-04-18T02:38:01.652Z",
  "devdoc": {
    "methods": {}
  },
  "userdoc": {
    "methods": {}
  }
}