{
  "contractName": "Game",
  "abi": [
    {
      "constant": true,
      "inputs": [],
      "name": "ceoAddress",
      "outputs": [
        {
          "name": "",
          "type": "address"
        }
      ],
      "payable": false,
      "stateMutability": "view",
      "type": "function"
    },
    {
      "constant": true,
      "inputs": [
        {
          "name": "",
          "type": "uint256"
        },
        {
          "name": "",
          "type": "address"
        }
      ],
      "name": "questionAnswer",
      "outputs": [
        {
          "name": "",
          "type": "bytes32"
        }
      ],
      "payable": false,
      "stateMutability": "view",
      "type": "function"
    },
    {
      "constant": true,
      "inputs": [
        {
          "name": "",
          "type": "uint256"
        },
        {
          "name": "",
          "type": "uint256"
        }
      ],
      "name": "questionPlayer",
      "outputs": [
        {
          "name": "",
          "type": "address"
        }
      ],
      "payable": false,
      "stateMutability": "view",
      "type": "function"
    },
    {
      "constant": true,
      "inputs": [
        {
          "name": "",
          "type": "address"
        }
      ],
      "name": "winCount",
      "outputs": [
        {
          "name": "",
          "type": "uint256"
        }
      ],
      "payable": false,
      "stateMutability": "view",
      "type": "function"
    },
    {
      "constant": false,
      "inputs": [
        {
          "name": "_newCeo",
          "type": "address"
        }
      ],
      "name": "setCeo",
      "outputs": [],
      "payable": false,
      "stateMutability": "nonpayable",
      "type": "function"
    },
    {
      "constant": true,
      "inputs": [
        {
          "name": "",
          "type": "uint256"
        },
        {
          "name": "",
          "type": "uint256"
        }
      ],
      "name": "questionWinner",
      "outputs": [
        {
          "name": "",
          "type": "address"
        }
      ],
      "payable": false,
      "stateMutability": "view",
      "type": "function"
    },
    {
      "constant": true,
      "inputs": [],
      "name": "bounty",
      "outputs": [
        {
          "name": "",
          "type": "uint256"
        }
      ],
      "payable": false,
      "stateMutability": "view",
      "type": "function"
    },
    {
      "constant": true,
      "inputs": [],
      "name": "deadlineQuestion",
      "outputs": [
        {
          "name": "",
          "type": "uint256"
        }
      ],
      "payable": false,
      "stateMutability": "view",
      "type": "function"
    },
    {
      "constant": true,
      "inputs": [
        {
          "name": "",
          "type": "uint256"
        }
      ],
      "name": "winners",
      "outputs": [
        {
          "name": "",
          "type": "address"
        }
      ],
      "payable": false,
      "stateMutability": "view",
      "type": "function"
    },
    {
      "constant": true,
      "inputs": [],
      "name": "questionBounty",
      "outputs": [
        {
          "name": "",
          "type": "uint256"
        }
      ],
      "payable": false,
      "stateMutability": "view",
      "type": "function"
    },
    {
      "constant": true,
      "inputs": [],
      "name": "currentQuestion",
      "outputs": [
        {
          "name": "",
          "type": "uint8"
        }
      ],
      "payable": false,
      "stateMutability": "view",
      "type": "function"
    },
    {
      "constant": true,
      "inputs": [
        {
          "name": "",
          "type": "uint256"
        }
      ],
      "name": "asked",
      "outputs": [
        {
          "name": "",
          "type": "bool"
        }
      ],
      "payable": false,
      "stateMutability": "view",
      "type": "function"
    },
    {
      "constant": true,
      "inputs": [
        {
          "name": "",
          "type": "uint256"
        }
      ],
      "name": "players",
      "outputs": [
        {
          "name": "",
          "type": "address"
        }
      ],
      "payable": false,
      "stateMutability": "view",
      "type": "function"
    },
    {
      "inputs": [
        {
          "name": "_ceoAddress",
          "type": "address"
        }
      ],
      "payable": false,
      "stateMutability": "nonpayable",
      "type": "constructor"
    },
    {
      "anonymous": false,
      "inputs": [
        {
          "indexed": false,
          "name": "currentQuestion",
          "type": "uint8"
        }
      ],
      "name": "NewQuestion",
      "type": "event"
    },
    {
      "constant": false,
      "inputs": [],
      "name": "setBounty",
      "outputs": [],
      "payable": true,
      "stateMutability": "payable",
      "type": "function"
    },
    {
      "constant": false,
      "inputs": [
        {
          "name": "_correctAnswer",
          "type": "bytes32"
        }
      ],
      "name": "setQuestion",
      "outputs": [],
      "payable": false,
      "stateMutability": "nonpayable",
      "type": "function"
    },
    {
      "constant": false,
      "inputs": [
        {
          "name": "_answer",
          "type": "bytes32"
        }
      ],
      "name": "answer",
      "outputs": [],
      "payable": true,
      "stateMutability": "payable",
      "type": "function"
    },
    {
      "constant": false,
      "inputs": [],
      "name": "shareQuestionBounty",
      "outputs": [],
      "payable": false,
      "stateMutability": "nonpayable",
      "type": "function"
    },
    {
      "constant": false,
      "inputs": [],
      "name": "shareBounty",
      "outputs": [],
      "payable": false,
      "stateMutability": "nonpayable",
      "type": "function"
    }
  ],
  "bytecode": "0x60806040526000601360006101000a81548160ff021916908360ff16021790555034801561002c57600080fd5b50604051602080611d418339810180604052602081101561004c57600080fd5b8101908080519060200190929190505050336000806101000a81548173ffffffffffffffffffffffffffffffffffffffff021916908373ffffffffffffffffffffffffffffffffffffffff160217905550806000806101000a81548173ffffffffffffffffffffffffffffffffffffffff021916908373ffffffffffffffffffffffffffffffffffffffff16021790555050611c54806100ed6000396000f3fe6080604052600436106100fc576000357c0100000000000000000000000000000000000000000000000000000000900463ffffffff1680630a0f8168146101015780630daff5fb1461015857806322d70fd4146101c757806338923a5c1461024c57806354bd5023146102875780636dbe21b8146102ec5780638807cb40146102f657806388975198146103245780638b662fb914610375578063943dfef1146103fa57806395fe93b814610425578063a2fb117514610450578063ae984858146104cb578063e7d58974146104f6578063e7dea0221461050d578063edd3d3d91461053e578063edeb5e9e14610591578063f71d96cb146105a8575b600080fd5b34801561010d57600080fd5b50610116610623565b604051808273ffffffffffffffffffffffffffffffffffffffff1673ffffffffffffffffffffffffffffffffffffffff16815260200191505060405180910390f35b34801561016457600080fd5b506101b16004803603604081101561017b57600080fd5b8101908080359060200190929190803573ffffffffffffffffffffffffffffffffffffffff169060200190929190505050610648565b6040518082815260200191505060405180910390f35b3480156101d357600080fd5b5061020a600480360360408110156101ea57600080fd5b81019080803590602001909291908035906020019092919050505061066d565b604051808273ffffffffffffffffffffffffffffffffffffffff1673ffffffffffffffffffffffffffffffffffffffff16815260200191505060405180910390f35b34801561025857600080fd5b506102856004803603602081101561026f57600080fd5b81019080803590602001909291905050506106ba565b005b34801561029357600080fd5b506102d6600480360360208110156102aa57600080fd5b81019080803573ffffffffffffffffffffffffffffffffffffffff16906020019092919050505061086e565b6040518082815260200191505060405180910390f35b6102f4610886565b005b6103226004803603602081101561030c57600080fd5b8101908080359060200190929190505050610910565b005b34801561033057600080fd5b506103736004803603602081101561034757600080fd5b81019080803573ffffffffffffffffffffffffffffffffffffffff169060200190929190505050610ce4565b005b34801561038157600080fd5b506103b86004803603604081101561039857600080fd5b810190808035906020019092919080359060200190929190505050610e27565b604051808273ffffffffffffffffffffffffffffffffffffffff1673ffffffffffffffffffffffffffffffffffffffff16815260200191505060405180910390f35b34801561040657600080fd5b5061040f610e74565b6040518082815260200191505060405180910390f35b34801561043157600080fd5b5061043a610e7a565b6040518082815260200191505060405180910390f35b34801561045c57600080fd5b506104896004803603602081101561047357600080fd5b8101908080359060200190929190505050610e80565b604051808273ffffffffffffffffffffffffffffffffffffffff1673ffffffffffffffffffffffffffffffffffffffff16815260200191505060405180910390f35b3480156104d757600080fd5b506104e0610ebe565b6040518082815260200191505060405180910390f35b34801561050257600080fd5b5061050b610ec4565b005b34801561051957600080fd5b50610522611717565b604051808260ff1660ff16815260200191505060405180910390f35b34801561054a57600080fd5b506105776004803603602081101561056157600080fd5b810190808035906020019092919050505061172a565b604051808215151515815260200191505060405180910390f35b34801561059d57600080fd5b506105a661174a565b005b3480156105b457600080fd5b506105e1600480360360208110156105cb57600080fd5b8101908080359060200190929190505050611b22565b604051808273ffffffffffffffffffffffffffffffffffffffff1673ffffffffffffffffffffffffffffffffffffffff16815260200191505060405180910390f35b6000809054906101000a900473ffffffffffffffffffffffffffffffffffffffff1681565b6005602052816000526040600020602052806000526040600020600091509150505481565b60066020528160005260406000208181548110151561068857fe5b906000526020600020016000915091509054906101000a900473ffffffffffffffffffffffffffffffffffffffff1681565b6000809054906101000a900473ffffffffffffffffffffffffffffffffffffffff1673ffffffffffffffffffffffffffffffffffffffff163373ffffffffffffffffffffffffffffffffffffffff1614151561077e576040517f08c379a00000000000000000000000000000000000000000000000000000000081526004018080602001828103825260128152602001807f73656e646572206d7573742062652063656f000000000000000000000000000081525060200191505060405180910390fd5b600060145414151561078f57600080fd5b600a601360009054906101000a900460ff1660ff161015156107b057600080fd5b806009601360009054906101000a900460ff1660ff16600a811015156107d257fe5b0181905550600160076000601360009054906101000a900460ff1660ff16815260200190815260200160002060006101000a81548160ff0219169083151502179055507f50da49f24fee0529864a7b8b3fa6cde86950c268e4a8582cf7ac17d3d4c1498d601360009054906101000a900460ff16604051808260ff1660ff16815260200191505060405180910390a16005430160158190555050565b60046020528060005260406000206000915090505481565b6000341115156108fe576040517f08c379a00000000000000000000000000000000000000000000000000000000081526004018080602001828103825260128152602001807f626f756e7479206d757374206265203e2030000000000000000000000000000081525060200191505060405180910390fd5b34600160008282540192505081905550565b601554431115151561092157600080fd5b60076000601360009054906101000a900460ff1660ff16815260200190815260200160002060009054906101000a900460ff16151561095f57600080fd5b600a601360009054906101000a900460ff1660ff161015156109e9576040517f08c379a000000000000000000000000000000000000000000000000000000000815260040180806020018281038252601e8152602001807f6f6e6520726f756e6420686173206f6e6c79203130207175657374696f6e000081525060200191505060405180910390fd5b6000809054906101000a900473ffffffffffffffffffffffffffffffffffffffff1673ffffffffffffffffffffffffffffffffffffffff163373ffffffffffffffffffffffffffffffffffffffff1614151515610a4557600080fd5b671bc16d674ec8000034111515610ac4576040517f08c379a00000000000000000000000000000000000000000000000000000000081526004018080602001828103825260148152602001807f666565206d757374206265203e203220544f4d4f00000000000000000000000081525060200191505060405180910390fd5b610af260066000601360009054906101000a900460ff1660ff16815260200190815260200160002033611b60565b151515610b67576040517f08c379a000000000000000000000000000000000000000000000000000000000815260040180806020018281038252601a8152602001807f706c6179657220686173206f6e6c79206f6e6520616e7377657200000000000081525060200191505060405180910390fd5b610b7360145434611c0c565b60148190555060066000601360009054906101000a900460ff1660ff1681526020019081526020016000203390806001815401808255809150509060018203906000526020600020016000909192909190916101000a81548173ffffffffffffffffffffffffffffffffffffffff021916908373ffffffffffffffffffffffffffffffffffffffff160217905550508060056000601360009054906101000a900460ff1660ff16815260200190815260200160002060003373ffffffffffffffffffffffffffffffffffffffff1673ffffffffffffffffffffffffffffffffffffffff16815260200190815260200160002081905550610c74600333611b60565b1515610ce15760033390806001815401808255809150509060018203906000526020600020016000909192909190916101000a81548173ffffffffffffffffffffffffffffffffffffffff021916908373ffffffffffffffffffffffffffffffffffffffff160217905550505b50565b6000809054906101000a900473ffffffffffffffffffffffffffffffffffffffff1673ffffffffffffffffffffffffffffffffffffffff163373ffffffffffffffffffffffffffffffffffffffff16141515610da8576040517f08c379a00000000000000000000000000000000000000000000000000000000081526004018080602001828103825260128152602001807f73656e646572206d7573742062652063656f000000000000000000000000000081525060200191505060405180910390fd5b600073ffffffffffffffffffffffffffffffffffffffff168173ffffffffffffffffffffffffffffffffffffffff1614151515610de457600080fd5b806000806101000a81548173ffffffffffffffffffffffffffffffffffffffff021916908373ffffffffffffffffffffffffffffffffffffffff16021790555050565b600860205281600052604060002081815481101515610e4257fe5b906000526020600020016000915091509054906101000a900473ffffffffffffffffffffffffffffffffffffffff1681565b60015481565b60155481565b600281815481101515610e8f57fe5b906000526020600020016000915054906101000a900473ffffffffffffffffffffffffffffffffffffffff1681565b60145481565b6000809054906101000a900473ffffffffffffffffffffffffffffffffffffffff1673ffffffffffffffffffffffffffffffffffffffff163373ffffffffffffffffffffffffffffffffffffffff16141515610f88576040517f08c379a00000000000000000000000000000000000000000000000000000000081526004018080602001828103825260128152602001807f73656e646572206d7573742062652063656f000000000000000000000000000081525060200191505060405180910390fd5b6000601454111515611002576040517f08c379a00000000000000000000000000000000000000000000000000000000081526004018080602001828103825260118152602001807f4174206c65617374203120616e7377657200000000000000000000000000000081525060200191505060405180910390fd5b6015544311151561107b576040517f08c379a000000000000000000000000000000000000000000000000000000000815260040180806020018281038252601e8152602001807f53686172696e67206d75737420626520616674657220646561646c696e65000081525060200191505060405180910390fd5b600a601360009054906101000a900460ff1660ff16101515611105576040517f08c379a000000000000000000000000000000000000000000000000000000000815260040180806020018281038252601e8152602001807f6f6e6520726f756e6420686173206f6e6c79203130207175657374696f6e000081525060200191505060405180910390fd5b60008090505b60066000601360009054906101000a900460ff1660ff168152602001908152602001600020805490508110156113c1576009601360009054906101000a900460ff1660ff16600a8110151561115c57fe5b015460056000601360009054906101000a900460ff1660ff168152602001908152602001600020600060066000601360009054906101000a900460ff1660ff168152602001908152602001600020848154811015156111b757fe5b9060005260206000200160009054906101000a900473ffffffffffffffffffffffffffffffffffffffff1673ffffffffffffffffffffffffffffffffffffffff1673ffffffffffffffffffffffffffffffffffffffff1681526020019081526020016000205414156113b45760086000601360009054906101000a900460ff1660ff16815260200190815260200160002060066000601360009054906101000a900460ff1660ff1681526020019081526020016000208281548110151561127a57fe5b9060005260206000200160009054906101000a900473ffffffffffffffffffffffffffffffffffffffff1690806001815401808255809150509060018203906000526020600020016000909192909190916101000a81548173ffffffffffffffffffffffffffffffffffffffff021916908373ffffffffffffffffffffffffffffffffffffffff160217905550506004600060066000601360009054906101000a900460ff1660ff1681526020019081526020016000208381548110151561133e57fe5b9060005260206000200160009054906101000a900473ffffffffffffffffffffffffffffffffffffffff1673ffffffffffffffffffffffffffffffffffffffff1673ffffffffffffffffffffffffffffffffffffffff168152602001908152602001600020600081548092919060010191905055505b808060010191505061110b565b50600060086000601360009054906101000a900460ff1660ff16815260200190815260200160002080549050111561155a57600060086000601360009054906101000a900460ff1660ff1681526020019081526020016000208054905060145481151561142a57fe5b04905060008090505b60086000601360009054906101000a900460ff1660ff168152602001908152602001600020805490508160ff1610156115195760086000601360009054906101000a900460ff1660ff1681526020019081526020016000208160ff1681548110151561149b57fe5b9060005260206000200160009054906101000a900473ffffffffffffffffffffffffffffffffffffffff1673ffffffffffffffffffffffffffffffffffffffff166108fc839081150290604051600060405180830381858888f1935050505015801561150b573d6000803e3d6000fd5b508080600101915050611433565b506013600081819054906101000a900460ff168092919060010191906101000a81548160ff021916908360ff16021790555050600060148190555050611577565b600a601360006101000a81548160ff021916908360ff1602179055505b6009601360009054906101000a900460ff1660ff161015156117155760008090505b6006600060098152602001908152602001600020805490508160ff16101561171357600a6004600060066000600981526020019081526020016000208460ff168154811015156115e557fe5b9060005260206000200160009054906101000a900473ffffffffffffffffffffffffffffffffffffffff1673ffffffffffffffffffffffffffffffffffffffff1673ffffffffffffffffffffffffffffffffffffffff16815260200190815260200160002054141561170657600260066000600981526020019081526020016000208260ff1681548110151561167757fe5b9060005260206000200160009054906101000a900473ffffffffffffffffffffffffffffffffffffffff1690806001815401808255809150509060018203906000526020600020016000909192909190916101000a81548173ffffffffffffffffffffffffffffffffffffffff021916908373ffffffffffffffffffffffffffffffffffffffff160217905550505b8080600101915050611599565b505b565b601360009054906101000a900460ff1681565b60076020528060005260406000206000915054906101000a900460ff1681565b6000809054906101000a900473ffffffffffffffffffffffffffffffffffffffff1673ffffffffffffffffffffffffffffffffffffffff163373ffffffffffffffffffffffffffffffffffffffff1614151561180e576040517f08c379a00000000000000000000000000000000000000000000000000000000081526004018080602001828103825260128152602001807f73656e646572206d7573742062652063656f000000000000000000000000000081525060200191505060405180910390fd5b6000600154111515611888576040517f08c379a00000000000000000000000000000000000000000000000000000000081526004018080602001828103825260128152602001807f426f756e7479206d757374206265203e2030000000000000000000000000000081525060200191505060405180910390fd5b60155443111515611901576040517f08c379a000000000000000000000000000000000000000000000000000000000815260040180806020018281038252601e8152602001807f53686172696e67206d75737420626520616674657220646561646c696e65000081525060200191505060405180910390fd5b6009601360009054906101000a900460ff1660ff161115156119b1576040517f08c379a00000000000000000000000000000000000000000000000000000000081526004018080602001828103825260288152602001807f53686172696e6720626f756e7479206d7573742062652061667465722031302081526020017f7175657374696f6e00000000000000000000000000000000000000000000000081525060400191505060405180910390fd5b60006002805490501115611a985760006002805490503073ffffffffffffffffffffffffffffffffffffffff16318115156119e857fe5b04905060008090505b6002805490508160ff161015611a915760028160ff16815481101515611a1357fe5b9060005260206000200160009054906101000a900473ffffffffffffffffffffffffffffffffffffffff1673ffffffffffffffffffffffffffffffffffffffff166108fc839081150290604051600060405180830381858888f19350505050158015611a83573d6000803e3d6000fd5b5080806001019150506119f1565b5050611b18565b6000809054906101000a900473ffffffffffffffffffffffffffffffffffffffff1673ffffffffffffffffffffffffffffffffffffffff166108fc3073ffffffffffffffffffffffffffffffffffffffff16319081150290604051600060405180830381858888f19350505050158015611b16573d6000803e3d6000fd5b505b6000600181905550565b600381815481101515611b3157fe5b906000526020600020016000915054906101000a900473ffffffffffffffffffffffffffffffffffffffff1681565b6000806000905060008090505b84805490508160ff161015611c01578373ffffffffffffffffffffffffffffffffffffffff16858260ff16815481101515611ba457fe5b9060005260206000200160009054906101000a900473ffffffffffffffffffffffffffffffffffffffff1673ffffffffffffffffffffffffffffffffffffffff161415611bf45760019150611c01565b8080600101915050611b6d565b508091505092915050565b60008183019050828110151515611c2257600080fd5b9291505056fea165627a7a72305820bb56f63b099cc9ef580699fa4362c1cb23b3e703615de36c03eeacff88ad6a960029",
  "source": "pragma solidity ^0.5.0;\n\nimport \"./AccessControl.sol\";\n\ncontract Game is AccessControl {\n    uint public bounty;\n    address payable[] public winners;\n\n    address payable[] public players;\n    mapping (address=>uint) public winCount;\n    \n    mapping (uint => mapping(address => bytes32)) public questionAnswer; // lưu câu trả lời của các địa chỉ ở mỗi câu hỏi \n    mapping (uint => address payable[]) public questionPlayer; // lưu mảng những địa chỉ trả lời trong mỗi câu hỏi \n    mapping (uint => bool) public asked; // check xem CEO đã đưa ra câu hỏi hay chưa \n    mapping (uint => address payable[]) public questionWinner; // lưu những địa chỉ trả lời đúng ở mỗi câu hỏi \n\n    bytes32[10] private correctAnswer;\n    uint8 public currentQuestion = 0;\n    uint256 public questionBounty;\n    uint public deadlineQuestion;\n\n    event NewQuestion(uint8 currentQuestion);\n    \n    constructor(address payable _ceoAddress) public {\n        ceoAddress = _ceoAddress;\n    }\n\n    function setBounty() \n        public \n        payable \n    {\n        require(msg.value > 0, \"bounty must be > 0\");\n        bounty += msg.value;\n    }\n\n    modifier hasBounty() {\n        require(bounty > 0, \"Bounty must be > 0\");\n        _;\n    }\n\n    modifier beforeDeadline() {\n        require(block.number <= deadlineQuestion);\n        _;\n    }\n\n    // check 1 address đã tồn tại trong 1 mảng hay chưa \n    function containArray(address payable[] storage array, address element) \n        internal \n        returns (bool) \n    {\n        bool found = false;\n        for(uint8 i = 0; i < array.length; i++) {\n            if(array[i] == element) {\n                found = true;\n                break;\n            }\n        }\n        return found;\n    }\n\n    function setQuestion(bytes32 _correctAnswer) \n        onlyCeo\n        external \n    {\n        require(questionBounty == 0); // tránh trường hợp người chơi đang chơi ceo đặt câu mới \n        require(currentQuestion < 10);\n        correctAnswer[currentQuestion] = _correctAnswer;\n        asked[currentQuestion] = true;\n        emit NewQuestion(currentQuestion);\n        deadlineQuestion = block.number + 5;\n    }\n\n    function answer(bytes32 _answer) \n        beforeDeadline \n        external \n        payable \n    {\n        require(asked[currentQuestion]); // chỉ được trả lời sau khi câu hỏi đã được đưa ra \n        require(currentQuestion < 10, \"one round has only 10 question\");\n        require(msg.sender != ceoAddress);\n        require(msg.value > 2 * 10 ** 18, \"fee must be > 2 TOMO\");\n        require(!containArray(questionPlayer[currentQuestion], msg.sender), \"player has only one answer\");\n        questionBounty = safeAdd(questionBounty, msg.value);\n        questionPlayer[currentQuestion].push(address(uint160(msg.sender)));\n        questionAnswer[currentQuestion][msg.sender] = _answer;\n        if(!containArray(players, msg.sender)) {\n            players.push(msg.sender);\n        }\n    }\n\n    function shareQuestionBounty() \n        onlyCeo \n        external \n    {\n        require(questionBounty > 0, \"At least 1 answer\");\n        require(block.number > deadlineQuestion, \"Sharing must be after deadline\");\n        require(currentQuestion < 10, \"one round has only 10 question\");\n        \n        for(uint i = 0; i < questionPlayer[currentQuestion].length; i++) {\n            if(questionAnswer[currentQuestion][questionPlayer[currentQuestion][i]] == correctAnswer[currentQuestion]) {\n                questionWinner[currentQuestion].push(questionPlayer[currentQuestion][i]);\n                winCount[questionPlayer[currentQuestion][i]] ++;\n            }\n        }\n        \n        if(questionWinner[currentQuestion].length > 0) {\n            uint bountySharing = questionBounty / questionWinner[currentQuestion].length;\n            for(uint8 i = 0; i < questionWinner[currentQuestion].length; i++) {\n                questionWinner[currentQuestion][i].transfer(bountySharing);\n            }\n            currentQuestion ++;\n            questionBounty = 0;\n        } \n        else {\n            currentQuestion = 10;\n        }\n        \n        /*\n            Muốn ăn được bounty thì ít nhất phải tham gia trả lời cả 10 câu hỏi\n            => chỉ cần xét trong số những người tham gia ở câu cuối để tìm ra người có winCount = 10 \n        */ \n        if(currentQuestion >= 9) {\n            for(uint8 i = 0; i < questionPlayer[9].length; i++) {\n                if(winCount[questionPlayer[9][i]] == 10) {\n                    winners.push(questionPlayer[9][i]); \n                }\n            }\n        }\n    }\n\n    function shareBounty() \n        onlyCeo \n        hasBounty \n        external \n    {\n        require(block.number > deadlineQuestion, \"Sharing must be after deadline\");\n        require(currentQuestion > 9, \"Sharing bounty must be after 10 question\");\n        \n        if(winners.length > 0) {\n            uint bountySharing = address(this).balance / winners.length;\n            for(uint8 i = 0; i < winners.length; i++) {\n                winners[i].transfer(bountySharing);\n            }\n        } \n        else {\n            ceoAddress.transfer(address(this).balance);\n        }\n        \n        bounty = 0;\n    }\n\n    function safeAdd(uint256 a, uint256 b) internal pure returns (uint256 c) {\n        c = a + b;\n        require(c >= a);\n    }\n    function safeSub(uint256 a, uint256 b) internal pure returns (uint256 c) {\n        require(b <= a);\n        c = a - b;\n    }\n    function safeMul(uint256 a, uint256 b) internal pure returns (uint256 c) {\n        c = a * b;\n        require(a == 0 || c / a == b);\n    }\n    function safeDiv(uint256 a, uint256 b) internal pure returns (uint256 c) {\n        require(b > 0);\n        c = a / b;\n    }\n}\n",
  "sourcePath": "/home/tran.minh.chien/Workspace/Blockchain/tomoGame/contracts/Game.sol",
  "compiler": {
    "name": "solc",
    "version": "0.5.0+commit.1d4f565a.Emscripten.clang"
  },
  "schemaVersion": "3.0.6",
  "updatedAt": "2019-06-27T09:34:02.899Z",
  "devdoc": {
    "methods": {}
  },
  "userdoc": {
    "methods": {}
  }
}