{
  "contractName": "Game",
  "abi": [
    {
      "constant": true,
      "inputs": [],
      "name": "ceoAddress",
      "outputs": [
        {
          "name": "",
          "type": "address"
        }
      ],
      "payable": false,
      "stateMutability": "view",
      "type": "function",
      "signature": "0x0a0f8168"
    },
    {
      "constant": true,
      "inputs": [
        {
          "name": "",
          "type": "uint256"
        },
        {
          "name": "",
          "type": "address"
        }
      ],
      "name": "questionAnswer",
      "outputs": [
        {
          "name": "",
          "type": "bytes32"
        }
      ],
      "payable": false,
      "stateMutability": "view",
      "type": "function",
      "signature": "0x0daff5fb"
    },
    {
      "constant": true,
      "inputs": [
        {
          "name": "",
          "type": "uint256"
        },
        {
          "name": "",
          "type": "uint256"
        }
      ],
      "name": "questionPlayer",
      "outputs": [
        {
          "name": "",
          "type": "address"
        }
      ],
      "payable": false,
      "stateMutability": "view",
      "type": "function",
      "signature": "0x22d70fd4"
    },
    {
      "constant": false,
      "inputs": [
        {
          "name": "_newCeo",
          "type": "address"
        }
      ],
      "name": "setCeo",
      "outputs": [],
      "payable": false,
      "stateMutability": "nonpayable",
      "type": "function",
      "signature": "0x88975198"
    },
    {
      "constant": true,
      "inputs": [],
      "name": "questionAsker",
      "outputs": [
        {
          "name": "",
          "type": "address"
        }
      ],
      "payable": false,
      "stateMutability": "view",
      "type": "function",
      "signature": "0x8cdf8c4a"
    },
    {
      "constant": true,
      "inputs": [],
      "name": "bounty",
      "outputs": [
        {
          "name": "",
          "type": "uint256"
        }
      ],
      "payable": false,
      "stateMutability": "view",
      "type": "function",
      "signature": "0x943dfef1"
    },
    {
      "constant": true,
      "inputs": [],
      "name": "deadlineQuestion",
      "outputs": [
        {
          "name": "",
          "type": "uint256"
        }
      ],
      "payable": false,
      "stateMutability": "view",
      "type": "function",
      "signature": "0x95fe93b8"
    },
    {
      "constant": true,
      "inputs": [
        {
          "name": "",
          "type": "uint256"
        }
      ],
      "name": "winners",
      "outputs": [
        {
          "name": "",
          "type": "address"
        }
      ],
      "payable": false,
      "stateMutability": "view",
      "type": "function",
      "signature": "0xa2fb1175"
    },
    {
      "constant": true,
      "inputs": [],
      "name": "questionBounty",
      "outputs": [
        {
          "name": "",
          "type": "uint256"
        }
      ],
      "payable": false,
      "stateMutability": "view",
      "type": "function",
      "signature": "0xae984858"
    },
    {
      "constant": true,
      "inputs": [],
      "name": "currentQuestion",
      "outputs": [
        {
          "name": "",
          "type": "uint8"
        }
      ],
      "payable": false,
      "stateMutability": "view",
      "type": "function",
      "signature": "0xe7dea022"
    },
    {
      "constant": true,
      "inputs": [
        {
          "name": "",
          "type": "uint256"
        }
      ],
      "name": "players",
      "outputs": [
        {
          "name": "",
          "type": "address"
        }
      ],
      "payable": false,
      "stateMutability": "view",
      "type": "function",
      "signature": "0xf71d96cb"
    },
    {
      "inputs": [],
      "payable": false,
      "stateMutability": "nonpayable",
      "type": "constructor",
      "signature": "constructor"
    },
    {
      "anonymous": false,
      "inputs": [
        {
          "indexed": false,
          "name": "currentQuestion",
          "type": "uint8"
        }
      ],
      "name": "NewQuestion",
      "type": "event",
      "signature": "0x50da49f24fee0529864a7b8b3fa6cde86950c268e4a8582cf7ac17d3d4c1498d"
    },
    {
      "constant": false,
      "inputs": [],
      "name": "setBounty",
      "outputs": [],
      "payable": true,
      "stateMutability": "payable",
      "type": "function",
      "signature": "0x6dbe21b8"
    },
    {
      "constant": false,
      "inputs": [
        {
          "name": "lower",
          "type": "uint256"
        },
        {
          "name": "upper",
          "type": "uint256"
        }
      ],
      "name": "randomRange",
      "outputs": [
        {
          "name": "",
          "type": "uint256"
        }
      ],
      "payable": false,
      "stateMutability": "nonpayable",
      "type": "function",
      "signature": "0x29edd572"
    },
    {
      "constant": false,
      "inputs": [
        {
          "name": "_correctAnswer",
          "type": "bytes32"
        }
      ],
      "name": "setQuestion",
      "outputs": [],
      "payable": false,
      "stateMutability": "nonpayable",
      "type": "function",
      "signature": "0x38923a5c"
    },
    {
      "constant": false,
      "inputs": [
        {
          "name": "_answer",
          "type": "bytes32"
        }
      ],
      "name": "answer",
      "outputs": [],
      "payable": true,
      "stateMutability": "payable",
      "type": "function",
      "signature": "0x8807cb40"
    },
    {
      "constant": false,
      "inputs": [],
      "name": "shareQuestionBounty",
      "outputs": [],
      "payable": false,
      "stateMutability": "nonpayable",
      "type": "function",
      "signature": "0xe7d58974"
    },
    {
      "constant": false,
      "inputs": [],
      "name": "shareBounty",
      "outputs": [],
      "payable": false,
      "stateMutability": "nonpayable",
      "type": "function",
      "signature": "0xedeb5e9e"
    }
  ],
  "bytecode": "0x60806040526000601260146101000a81548160ff021916908360ff16021790555034801561002c57600080fd5b50600143034033604051602001808381526020018273ffffffffffffffffffffffffffffffffffffffff1673ffffffffffffffffffffffffffffffffffffffff166c010000000000000000000000000281526014019250505060405160208183030381529060405280519060200120600381905550611648806100b06000396000f3fe6080604052600436106100f1576000357c0100000000000000000000000000000000000000000000000000000000900463ffffffff1680630a0f8168146100f65780630daff5fb1461014d57806322d70fd4146101bc57806329edd5721461024157806338923a5c1461029a5780636dbe21b8146102d55780638807cb40146102df578063889751981461030d5780638cdf8c4a1461035e578063943dfef1146103b557806395fe93b8146103e0578063a2fb11751461040b578063ae98485814610486578063e7d58974146104b1578063e7dea022146104c8578063edeb5e9e146104f9578063f71d96cb14610510575b600080fd5b34801561010257600080fd5b5061010b61058b565b604051808273ffffffffffffffffffffffffffffffffffffffff1673ffffffffffffffffffffffffffffffffffffffff16815260200191505060405180910390f35b34801561015957600080fd5b506101a66004803603604081101561017057600080fd5b8101908080359060200190929190803573ffffffffffffffffffffffffffffffffffffffff1690602001909291905050506105b0565b6040518082815260200191505060405180910390f35b3480156101c857600080fd5b506101ff600480360360408110156101df57600080fd5b8101908080359060200190929190803590602001909291905050506105d5565b604051808273ffffffffffffffffffffffffffffffffffffffff1673ffffffffffffffffffffffffffffffffffffffff16815260200191505060405180910390f35b34801561024d57600080fd5b506102846004803603604081101561026457600080fd5b810190808035906020019092919080359060200190929190505050610622565b6040518082815260200191505060405180910390f35b3480156102a657600080fd5b506102d3600480360360208110156102bd57600080fd5b8101908080359060200190929190505050610643565b005b6102dd6106c3565b005b61030b600480360360208110156102f557600080fd5b810190808035906020019092919050505061079f565b005b34801561031957600080fd5b5061035c6004803603602081101561033057600080fd5b81019080803573ffffffffffffffffffffffffffffffffffffffff169060200190929190505050610b7d565b005b34801561036a57600080fd5b50610373610c57565b604051808273ffffffffffffffffffffffffffffffffffffffff1673ffffffffffffffffffffffffffffffffffffffff16815260200191505060405180910390f35b3480156103c157600080fd5b506103ca610c7d565b6040518082815260200191505060405180910390f35b3480156103ec57600080fd5b506103f5610c83565b6040518082815260200191505060405180910390f35b34801561041757600080fd5b506104446004803603602081101561042e57600080fd5b8101908080359060200190929190505050610c89565b604051808273ffffffffffffffffffffffffffffffffffffffff1673ffffffffffffffffffffffffffffffffffffffff16815260200191505060405180910390f35b34801561049257600080fd5b5061049b610cc7565b6040518082815260200191505060405180910390f35b3480156104bd57600080fd5b506104c6610ccd565b005b3480156104d457600080fd5b506104dd6111fd565b604051808260ff1660ff16815260200191505060405180910390f35b34801561050557600080fd5b5061050e611210565b005b34801561051c57600080fd5b506105496004803603602081101561053357600080fd5b81019080803590602001909291905050506114e4565b604051808273ffffffffffffffffffffffffffffffffffffffff1673ffffffffffffffffffffffffffffffffffffffff16815260200191505060405180910390f35b6000809054906101000a900473ffffffffffffffffffffffffffffffffffffffff1681565b6006602052816000526040600020602052806000526040600020600091509150505481565b6007602052816000526040600020818154811015156105f057fe5b906000526020600020016000915091509054906101000a900473ffffffffffffffffffffffffffffffffffffffff1681565b600082838303610630611522565b81151561063957fe5b0601905092915050565b806008601260149054906101000a900460ff1660ff16600a8110151561066557fe5b01819055507f50da49f24fee0529864a7b8b3fa6cde86950c268e4a8582cf7ac17d3d4c1498d601260149054906101000a900460ff16604051808260ff1660ff16815260200191505060405180910390a16005430160148190555050565b6000809054906101000a900473ffffffffffffffffffffffffffffffffffffffff1673ffffffffffffffffffffffffffffffffffffffff163373ffffffffffffffffffffffffffffffffffffffff1614151561071e57600080fd5b600034111515610796576040517f08c379a00000000000000000000000000000000000000000000000000000000081526004018080602001828103825260128152602001807f626f756e7479206d757374206265203e2030000000000000000000000000000081525060200191505060405180910390fd5b34600181905550565b60145443111515156107b057600080fd5b600a601260149054906101000a900460ff1660ff1610151561083a576040517f08c379a000000000000000000000000000000000000000000000000000000000815260040180806020018281038252601e8152602001807f6f6e6520726f756e6420686173206f6e6c79203130207175657374696f6e000081525060200191505060405180910390fd5b671bc16d674ec80000341115156108b9576040517f08c379a00000000000000000000000000000000000000000000000000000000081526004018080602001828103825260148152602001807f666565206d757374206265203e203220544f4d4f00000000000000000000000081525060200191505060405180910390fd5b6108e760076000601260149054906101000a900460ff1660ff16815260200190815260200160002033611570565b151561095b576040517f08c379a000000000000000000000000000000000000000000000000000000000815260040180806020018281038252601a8152602001807f706c6179657220686173206f6e6c79206f6e6520616e7377657200000000000081525060200191505060405180910390fd5b60135473__SafeMath256___________________________63e6cb90139091346040518363ffffffff167c0100000000000000000000000000000000000000000000000000000000028152600401808381526020018281526020019250505060206040518083038186803b1580156109d257600080fd5b505af41580156109e6573d6000803e3d6000fd5b505050506040513d60208110156109fc57600080fd5b810190808051906020019092919050505060138190555060076000601260149054906101000a900460ff1660ff1681526020019081526020016000203390806001815401808255809150509060018203906000526020600020016000909192909190916101000a81548173ffffffffffffffffffffffffffffffffffffffff021916908373ffffffffffffffffffffffffffffffffffffffff160217905550508060066000601260149054906101000a900460ff1660ff16815260200190815260200160002060003373ffffffffffffffffffffffffffffffffffffffff1673ffffffffffffffffffffffffffffffffffffffff16815260200190815260200160002081905550610b0e600433611570565b15610b7a5760043390806001815401808255809150509060018203906000526020600020016000909192909190916101000a81548173ffffffffffffffffffffffffffffffffffffffff021916908373ffffffffffffffffffffffffffffffffffffffff160217905550505b50565b6000809054906101000a900473ffffffffffffffffffffffffffffffffffffffff1673ffffffffffffffffffffffffffffffffffffffff163373ffffffffffffffffffffffffffffffffffffffff16141515610bd857600080fd5b600073ffffffffffffffffffffffffffffffffffffffff168173ffffffffffffffffffffffffffffffffffffffff1614151515610c1457600080fd5b806000806101000a81548173ffffffffffffffffffffffffffffffffffffffff021916908373ffffffffffffffffffffffffffffffffffffffff16021790555050565b601260009054906101000a900473ffffffffffffffffffffffffffffffffffffffff1681565b60015481565b60145481565b600281815481101515610c9857fe5b906000526020600020016000915054906101000a900473ffffffffffffffffffffffffffffffffffffffff1681565b60135481565b6000809054906101000a900473ffffffffffffffffffffffffffffffffffffffff1673ffffffffffffffffffffffffffffffffffffffff163373ffffffffffffffffffffffffffffffffffffffff16141515610d2857600080fd5b60145443111515610da1576040517f08c379a000000000000000000000000000000000000000000000000000000000815260040180806020018281038252601e8152602001807f53686172696e67206d75737420626520616674657220646561646c696e65000081525060200191505060405180910390fd5b600a601260149054906101000a900460ff1660ff16101515610e2b576040517f08c379a000000000000000000000000000000000000000000000000000000000815260040180806020018281038252601e8152602001807f6f6e6520726f756e6420686173206f6e6c79203130207175657374696f6e000081525060200191505060405180910390fd5b600060076000601260149054906101000a900460ff1660ff16815260200190815260200160002080549050601354811515610e6257fe5b04905060008090505b60076000601260149054906101000a900460ff1660ff168152602001908152602001600020805490508160ff1610156111f9576008601260149054906101000a900460ff1660ff16600a81101515610ebf57fe5b015460066000601260149054906101000a900460ff1660ff168152602001908152602001600020600060076000601260149054906101000a900460ff1660ff1681526020019081526020016000208460ff16815481101515610f1d57fe5b9060005260206000200160009054906101000a900473ffffffffffffffffffffffffffffffffffffffff1673ffffffffffffffffffffffffffffffffffffffff1673ffffffffffffffffffffffffffffffffffffffff1681526020019081526020016000205414156111215760076000601260149054906101000a900460ff1660ff1681526020019081526020016000208160ff16815481101515610fbe57fe5b9060005260206000200160009054906101000a900473ffffffffffffffffffffffffffffffffffffffff1673ffffffffffffffffffffffffffffffffffffffff166108fc839081150290604051600060405180830381858888f1935050505015801561102e573d6000803e3d6000fd5b50600560003373ffffffffffffffffffffffffffffffffffffffff1673ffffffffffffffffffffffffffffffffffffffff1681526020019081526020016000205473__SafeMath256___________________________63e6cb9013909160016040518363ffffffff167c0100000000000000000000000000000000000000000000000000000000028152600401808381526020018281526020019250505060206040518083038186803b1580156110e457600080fd5b505af41580156110f8573d6000803e3d6000fd5b505050506040513d602081101561110e57600080fd5b8101908080519060200190929190505050505b6009601260149054906101000a900460ff1660ff1614156111ec57600a600560003373ffffffffffffffffffffffffffffffffffffffff1673ffffffffffffffffffffffffffffffffffffffff1681526020019081526020016000205414156111eb5760023390806001815401808255809150509060018203906000526020600020016000909192909190916101000a81548173ffffffffffffffffffffffffffffffffffffffff021916908373ffffffffffffffffffffffffffffffffffffffff160217905550505b5b8080600101915050610e6b565b5050565b601260149054906101000a900460ff1681565b6000809054906101000a900473ffffffffffffffffffffffffffffffffffffffff1673ffffffffffffffffffffffffffffffffffffffff163373ffffffffffffffffffffffffffffffffffffffff1614151561126b57600080fd5b60006001541115156112e5576040517f08c379a00000000000000000000000000000000000000000000000000000000081526004018080602001828103825260128152602001807f426f756e7479206d757374206265203e2030000000000000000000000000000081525060200191505060405180910390fd5b6014544311151561135e576040517f08c379a000000000000000000000000000000000000000000000000000000000815260040180806020018281038252601e8152602001807f53686172696e67206d75737420626520616674657220646561646c696e65000081525060200191505060405180910390fd5b6009601260149054906101000a900460ff1660ff1611151561140e576040517f08c379a00000000000000000000000000000000000000000000000000000000081526004018080602001828103825260288152602001807f53686172696e6720626f756e7479206d7573742062652061667465722031302081526020017f7175657374696f6e00000000000000000000000000000000000000000000000081525060400191505060405180910390fd5b60006002805490503073ffffffffffffffffffffffffffffffffffffffff163181151561143757fe5b04905060008090505b6002805490508160ff1610156114e05760028160ff1681548110151561146257fe5b9060005260206000200160009054906101000a900473ffffffffffffffffffffffffffffffffffffffff1673ffffffffffffffffffffffffffffffffffffffff166108fc839081150290604051600060405180830381858888f193505050501580156114d2573d6000803e3d6000fd5b508080600101915050611440565b5050565b6004818154811015156114f357fe5b906000526020600020016000915054906101000a900473ffffffffffffffffffffffffffffffffffffffff1681565b60008060035443401860019004905043406003546040516020018083815260200182815260200192505050604051602081830303815290604052805190602001206003819055508091505090565b6000806000905060008090505b84805490508160ff161015611611578373ffffffffffffffffffffffffffffffffffffffff16858260ff168154811015156115b457fe5b9060005260206000200160009054906101000a900473ffffffffffffffffffffffffffffffffffffffff1673ffffffffffffffffffffffffffffffffffffffff1614156116045760019150611611565b808060010191505061157d565b50809150509291505056fea165627a7a7230582079d178cf0c211282735b7ee9aa6701d63b7c9df5fbec27a812a58a198aba71040029",
  "source": "pragma solidity ^0.5.0;\nimport \"./AccessControl.sol\";\nimport \"./SafeMath.sol\";\n\ncontract Game is AccessControl {\n    uint public bounty;\n    using SafeMath256 for uint256;\n    address payable[] public winners;\n    bytes32 private seed;\n\n    address payable[] public players;\n    mapping (address=>uint) winCount;\n    \n    mapping (uint => mapping(address => bytes32)) public questionAnswer;\n    mapping (uint => address payable[]) public questionPlayer;\n\n    bytes32[10] private correctAnswer;\n    address public questionAsker;\n    uint8 public currentQuestion = 0;\n    uint256 public questionBounty;\n    uint public deadlineQuestion;\n\n    event NewQuestion(uint8 currentQuestion);\n    \n    constructor() public {\n        seed = keccak256(\n            abi.encodePacked(blockhash(block.number - 1), msg.sender)\n        );    \n    }\n\n    function setBounty() \n        public \n        payable \n        onlyCeo \n    {\n        require(msg.value > 0, \"bounty must be > 0\");\n        bounty = msg.value;\n    }\n\n    function _nextUint() \n        internal \n        returns (uint256) \n    {\n        uint256 next = uint256(blockhash(block.number) ^ seed);\n        seed = keccak256(abi.encodePacked(blockhash(block.number), seed));\n        return next;\n    }\n    \n    function randomRange(uint256 lower, uint256 upper)\n        external\n        returns (uint256)\n    {\n        return _nextUint() % (upper - lower) + lower;\n    }\n\n    modifier hasBounty() {\n        require(bounty > 0, \"Bounty must be > 0\");\n        _;\n    }\n\n    modifier beforeDeadline() {\n        require(block.number <= deadlineQuestion);\n        _;\n    }\n\n    function containArray(address payable[] storage array, address element) \n        internal \n        returns (bool) \n    {\n        bool found = false;\n        for(uint8 i = 0; i < array.length; i++) {\n            if(array[i] == element) {\n                found = true;\n                break;\n            }\n        }\n        return found;\n    }\n\n\n    function setQuestion(bytes32 _correctAnswer) \n        external \n    {\n        correctAnswer[currentQuestion] = _correctAnswer;\n        emit NewQuestion(currentQuestion);\n        deadlineQuestion = block.number + 5;\n    } \n\n    function answer(bytes32 _answer) \n        beforeDeadline \n        external \n        payable \n    {\n        require(currentQuestion < 10, \"one round has only 10 question\");\n        require(msg.value > 2 * 10 ** 18, \"fee must be > 2 TOMO\");\n        require(containArray(questionPlayer[currentQuestion], msg.sender), \"player has only one answer\");\n        questionBounty = questionBounty.safeAdd(msg.value);\n        questionPlayer[currentQuestion].push(address(uint160(msg.sender)));\n        questionAnswer[currentQuestion][msg.sender] = _answer;\n        if(containArray(players, msg.sender)) {\n            players.push(msg.sender);\n        }\n    }\n\n    function shareQuestionBounty() \n        onlyCeo \n        external \n    {\n        require(block.number > deadlineQuestion, \"Sharing must be after deadline\");\n        require(currentQuestion < 10, \"one round has only 10 question\");\n        uint bountySharing = questionBounty / questionPlayer[currentQuestion].length;\n        for(uint8 i = 0; i < questionPlayer[currentQuestion].length; i++) {\n            if(questionAnswer[currentQuestion][questionPlayer[currentQuestion][i]] == correctAnswer[currentQuestion]) {\n                questionPlayer[currentQuestion][i].transfer(bountySharing);\n                winCount[msg.sender].safeAdd(1);\n            }\n\n            if(currentQuestion == 9) {\n                if(winCount[msg.sender] == 10) {\n                    winners.push(msg.sender);\n                }\n            }\n        }\n    }\n\n    function shareBounty() \n        onlyCeo \n        hasBounty \n        external \n    {\n        require(block.number > deadlineQuestion, \"Sharing must be after deadline\");\n        require(currentQuestion > 9, \"Sharing bounty must be after 10 question\");\n        uint bountySharing = address(this).balance / winners.length;\n        for(uint8 i = 0; i < winners.length; i++) {\n           winners[i].transfer(bountySharing);\n        }\n    }\n}\n",
  "sourcePath": "/home/tran.minh.chien/Workspace/Blockchain/tomoGame/contracts/Game.sol",
  "compiler": {
    "name": "solc",
    "version": "0.5.0+commit.1d4f565a.Emscripten.clang"
  },
  "schemaVersion": "3.0.6",
  "updatedAt": "2019-04-11T03:29:21.918Z",
  "devdoc": {
    "methods": {}
  },
  "userdoc": {
    "methods": {}
  }
}