{
  "contractName": "SafeMath8",
  "abi": [
    {
      "constant": true,
      "inputs": [
        {
          "name": "a",
          "type": "uint8"
        },
        {
          "name": "b",
          "type": "uint8"
        }
      ],
      "name": "safeAdd",
      "outputs": [
        {
          "name": "c",
          "type": "uint8"
        }
      ],
      "payable": false,
      "stateMutability": "pure",
      "type": "function"
    },
    {
      "constant": true,
      "inputs": [
        {
          "name": "a",
          "type": "uint8"
        },
        {
          "name": "b",
          "type": "uint8"
        }
      ],
      "name": "safeSub",
      "outputs": [
        {
          "name": "c",
          "type": "uint8"
        }
      ],
      "payable": false,
      "stateMutability": "pure",
      "type": "function"
    },
    {
      "constant": true,
      "inputs": [
        {
          "name": "a",
          "type": "uint8"
        },
        {
          "name": "b",
          "type": "uint8"
        }
      ],
      "name": "safeMul",
      "outputs": [
        {
          "name": "c",
          "type": "uint8"
        }
      ],
      "payable": false,
      "stateMutability": "pure",
      "type": "function"
    },
    {
      "constant": true,
      "inputs": [
        {
          "name": "a",
          "type": "uint8"
        },
        {
          "name": "b",
          "type": "uint8"
        }
      ],
      "name": "safeDiv",
      "outputs": [
        {
          "name": "c",
          "type": "uint8"
        }
      ],
      "payable": false,
      "stateMutability": "pure",
      "type": "function"
    }
  ],
  "bytecode": "0x6102bb610030600b82828239805160001a6073146000811461002057610022565bfe5b5030600052607381538281f3fe7300000000000000000000000000000000000000003014608060405260043610610079576000357c0100000000000000000000000000000000000000000000000000000000900463ffffffff16806359062ee71461007e57806386bc72f9146100d657806396776b951461012e578063aeb3e89e14610186575b600080fd5b6100ba6004803603604081101561009457600080fd5b81019080803560ff169060200190929190803560ff1690602001909291905050506101de565b604051808260ff1660ff16815260200191505060405180910390f35b610112600480360360408110156100ec57600080fd5b81019080803560ff169060200190929190803560ff16906020019092919050505061021e565b604051808260ff1660ff16815260200191505060405180910390f35b61016a6004803603604081101561014457600080fd5b81019080803560ff169060200190929190803560ff16906020019092919050505061024b565b604051808260ff1660ff16815260200191505060405180910390f35b6101c26004803603604081101561019c57600080fd5b81019080803560ff169060200190929190803560ff16906020019092919050505061026d565b604051808260ff1660ff16815260200191505060405180910390f35b6000818302905060008360ff16148061020d57508160ff168360ff168260ff1681151561020757fe5b0460ff16145b151561021857600080fd5b92915050565b6000808260ff1611151561023157600080fd5b8160ff168360ff1681151561024257fe5b04905092915050565b600081830190508260ff168160ff161015151561026757600080fd5b92915050565b60008260ff168260ff161115151561028457600080fd5b81830390509291505056fea165627a7a72305820bc427d45533151588dfab4696bae4002e8a93ff6e969fdfb244a0a6183bef4f80029",
  "source": "pragma solidity ^0.5.0;\n\n\nlibrary SafeMath256 {\n    function safeAdd(uint256 a, uint256 b) public pure returns (uint256 c) {\n        c = a + b;\n        require(c >= a);\n    }\n    function safeSub(uint256 a, uint256 b) public pure returns (uint256 c) {\n        require(b <= a);\n        c = a - b;\n    }\n    function safeMul(uint256 a, uint256 b) public pure returns (uint256 c) {\n        c = a * b;\n        require(a == 0 || c / a == b);\n    }\n    function safeDiv(uint256 a, uint256 b) public pure returns (uint256 c) {\n        require(b > 0);\n        c = a / b;\n    }\n}\n\n\nlibrary SafeMath32 {\n    function safeAdd(uint32 a, uint32 b) public pure returns (uint32 c) {\n        c = a + b;\n        require(c >= a);\n    }\n    function safeSub(uint32 a, uint32 b) public pure returns (uint32 c) {\n        require(b <= a);\n        c = a - b;\n    }\n    function safeMul(uint32 a, uint32 b) public pure returns (uint32 c) {\n        c = a * b;\n        require(a == 0 || c / a == b);\n    }\n    function safeDiv(uint32 a, uint32 b) public pure returns (uint32 c) {\n        require(b > 0);\n        c = a / b;\n    }\n}\n\n\nlibrary SafeMath24 {\n    function safeAdd(uint24 a, uint24 b) public pure returns (uint24 c) {\n        c = a + b;\n        require(c >= a);\n    }\n    function safeSub(uint24 a, uint24 b) public pure returns (uint24 c) {\n        require(b <= a);\n        c = a - b;\n    }\n    function safeMul(uint24 a, uint24 b) public pure returns (uint24 c) {\n        c = a * b;\n        require(a == 0 || c / a == b);\n    }\n    function safeDiv(uint24 a, uint24 b) public pure returns (uint24 c) {\n        require(b > 0);\n        c = a / b;\n    }\n}\n\n\nlibrary SafeMath16 {\n    function safeAdd(uint16 a, uint16 b) public pure returns (uint16 c) {\n        c = a + b;\n        require(c >= a);\n    }\n    function safeSub(uint16 a, uint16 b) public pure returns (uint16 c) {\n        require(b <= a);\n        c = a - b;\n    }\n    function safeMul(uint16 a, uint16 b) public pure returns (uint16 c) {\n        c = a * b;\n        require(a == 0 || c / a == b);\n    }\n    function safeDiv(uint16 a, uint16 b) public pure returns (uint16 c) {\n        require(b > 0);\n        c = a / b;\n    }\n}\n\n\nlibrary SafeMath8 {\n    function safeAdd(uint8 a, uint8 b) public pure returns (uint8 c) {\n        c = a + b;\n        require(c >= a);\n    }\n    function safeSub(uint8 a, uint8 b) public pure returns (uint8 c) {\n        require(b <= a);\n        c = a - b;\n    }\n    function safeMul(uint8 a, uint8 b) public pure returns (uint8 c) {\n        c = a * b;\n        require(a == 0 || c / a == b);\n    }\n    function safeDiv(uint8 a, uint8 b) public pure returns (uint8 c) {\n        require(b > 0);\n        c = a / b;\n    }\n}\n",
  "sourcePath": "/home/tran.minh.chien/Workspace/Blockchain/tomoGame/contracts/SafeMath.sol",
  "compiler": {
    "name": "solc",
    "version": "0.5.0+commit.1d4f565a.Emscripten.clang"
  },
  "schemaVersion": "3.0.6",
  "updatedAt": "2019-04-18T07:16:09.578Z",
  "devdoc": {
    "methods": {}
  },
  "userdoc": {
    "methods": {}
  }
}