{
  "contractName": "SafeMath32",
  "abi": [
    {
      "constant": true,
      "inputs": [
        {
          "name": "a",
          "type": "uint32"
        },
        {
          "name": "b",
          "type": "uint32"
        }
      ],
      "name": "safeAdd",
      "outputs": [
        {
          "name": "c",
          "type": "uint32"
        }
      ],
      "payable": false,
      "stateMutability": "pure",
      "type": "function"
    },
    {
      "constant": true,
      "inputs": [
        {
          "name": "a",
          "type": "uint32"
        },
        {
          "name": "b",
          "type": "uint32"
        }
      ],
      "name": "safeSub",
      "outputs": [
        {
          "name": "c",
          "type": "uint32"
        }
      ],
      "payable": false,
      "stateMutability": "pure",
      "type": "function"
    },
    {
      "constant": true,
      "inputs": [
        {
          "name": "a",
          "type": "uint32"
        },
        {
          "name": "b",
          "type": "uint32"
        }
      ],
      "name": "safeMul",
      "outputs": [
        {
          "name": "c",
          "type": "uint32"
        }
      ],
      "payable": false,
      "stateMutability": "pure",
      "type": "function"
    },
    {
      "constant": true,
      "inputs": [
        {
          "name": "a",
          "type": "uint32"
        },
        {
          "name": "b",
          "type": "uint32"
        }
      ],
      "name": "safeDiv",
      "outputs": [
        {
          "name": "c",
          "type": "uint32"
        }
      ],
      "payable": false,
      "stateMutability": "pure",
      "type": "function"
    }
  ],
  "bytecode": "0x61030f610030600b82828239805160001a6073146000811461002057610022565bfe5b5030600052607381538281f3fe7300000000000000000000000000000000000000003014608060405260043610610079576000357c0100000000000000000000000000000000000000000000000000000000900463ffffffff168063468036cd1461007e57806350a062a8146100e25780636e243f9214610146578063f0ea349d146101aa575b600080fd5b6100c06004803603604081101561009457600080fd5b81019080803563ffffffff169060200190929190803563ffffffff16906020019092919050505061020e565b604051808263ffffffff1663ffffffff16815260200191505060405180910390f35b610124600480360360408110156100f857600080fd5b81019080803563ffffffff169060200190929190803563ffffffff16906020019092919050505061025d565b604051808263ffffffff1663ffffffff16815260200191505060405180910390f35b6101886004803603604081101561015c57600080fd5b81019080803563ffffffff169060200190929190803563ffffffff169060200190929190505050610293565b604051808263ffffffff1663ffffffff16815260200191505060405180910390f35b6101ec600480360360408110156101c057600080fd5b81019080803563ffffffff169060200190929190803563ffffffff1690602001909291905050506102bb565b604051808263ffffffff1663ffffffff16815260200191505060405180910390f35b6000818302905060008363ffffffff16148061024c57508163ffffffff168363ffffffff168263ffffffff1681151561024357fe5b0463ffffffff16145b151561025757600080fd5b92915050565b6000808263ffffffff1611151561027357600080fd5b8163ffffffff168363ffffffff1681151561028a57fe5b04905092915050565b600081830190508263ffffffff168163ffffffff16101515156102b557600080fd5b92915050565b60008263ffffffff168263ffffffff16111515156102d857600080fd5b81830390509291505056fea165627a7a72305820beff93469de9bf836012590d304559f9d3f81121fd494366a54d9ff3776c0b400029",
  "source": "pragma solidity ^0.5.0;\n\n\nlibrary SafeMath256 {\n    function safeAdd(uint256 a, uint256 b) public pure returns (uint256 c) {\n        c = a + b;\n        require(c >= a);\n    }\n    function safeSub(uint256 a, uint256 b) public pure returns (uint256 c) {\n        require(b <= a);\n        c = a - b;\n    }\n    function safeMul(uint256 a, uint256 b) public pure returns (uint256 c) {\n        c = a * b;\n        require(a == 0 || c / a == b);\n    }\n    function safeDiv(uint256 a, uint256 b) public pure returns (uint256 c) {\n        require(b > 0);\n        c = a / b;\n    }\n}\n\n\nlibrary SafeMath32 {\n    function safeAdd(uint32 a, uint32 b) public pure returns (uint32 c) {\n        c = a + b;\n        require(c >= a);\n    }\n    function safeSub(uint32 a, uint32 b) public pure returns (uint32 c) {\n        require(b <= a);\n        c = a - b;\n    }\n    function safeMul(uint32 a, uint32 b) public pure returns (uint32 c) {\n        c = a * b;\n        require(a == 0 || c / a == b);\n    }\n    function safeDiv(uint32 a, uint32 b) public pure returns (uint32 c) {\n        require(b > 0);\n        c = a / b;\n    }\n}\n\n\nlibrary SafeMath24 {\n    function safeAdd(uint24 a, uint24 b) public pure returns (uint24 c) {\n        c = a + b;\n        require(c >= a);\n    }\n    function safeSub(uint24 a, uint24 b) public pure returns (uint24 c) {\n        require(b <= a);\n        c = a - b;\n    }\n    function safeMul(uint24 a, uint24 b) public pure returns (uint24 c) {\n        c = a * b;\n        require(a == 0 || c / a == b);\n    }\n    function safeDiv(uint24 a, uint24 b) public pure returns (uint24 c) {\n        require(b > 0);\n        c = a / b;\n    }\n}\n\n\nlibrary SafeMath16 {\n    function safeAdd(uint16 a, uint16 b) public pure returns (uint16 c) {\n        c = a + b;\n        require(c >= a);\n    }\n    function safeSub(uint16 a, uint16 b) public pure returns (uint16 c) {\n        require(b <= a);\n        c = a - b;\n    }\n    function safeMul(uint16 a, uint16 b) public pure returns (uint16 c) {\n        c = a * b;\n        require(a == 0 || c / a == b);\n    }\n    function safeDiv(uint16 a, uint16 b) public pure returns (uint16 c) {\n        require(b > 0);\n        c = a / b;\n    }\n}\n\n\nlibrary SafeMath8 {\n    function safeAdd(uint8 a, uint8 b) public pure returns (uint8 c) {\n        c = a + b;\n        require(c >= a);\n    }\n    function safeSub(uint8 a, uint8 b) public pure returns (uint8 c) {\n        require(b <= a);\n        c = a - b;\n    }\n    function safeMul(uint8 a, uint8 b) public pure returns (uint8 c) {\n        c = a * b;\n        require(a == 0 || c / a == b);\n    }\n    function safeDiv(uint8 a, uint8 b) public pure returns (uint8 c) {\n        require(b > 0);\n        c = a / b;\n    }\n}\n",
  "sourcePath": "/home/tran.minh.chien/Workspace/Blockchain/tomoGame/contracts/SafeMath.sol",
  "compiler": {
    "name": "solc",
    "version": "0.5.0+commit.1d4f565a.Emscripten.clang"
  },
  "schemaVersion": "3.0.6",
  "updatedAt": "2019-04-11T02:00:53.913Z",
  "devdoc": {
    "methods": {}
  },
  "userdoc": {
    "methods": {}
  }
}